:020000040000fa
:080000000002040000000000f2
:020000040000fa
:04000800820300006f
:020000040000fa
:04000c0000030000ed
:020000040000fa
:0400100042030000a7
:020000040000fa
:0400140020030000c5
:020000040000fa
:04001800620300007f
:020000040000fa
:04001c00820300005b
:020000040000fa
:040020008203000057
:020000040000fa
:040024008203000053
:020000040000fa
:04002800820300004f
:020000040000fa
:04002c00820300004b
:020000040000fa
:040030008203000047
:020000040000fa
:040034008203000043
:020000040000fa
:04003800820300003f
:020000040000fa
:04003c00820300003b
:020000040000fa
:040040008203000037
:020000040000fa
:040044008203000033
:020000040000fa
:04004800c8020000ea
:020000040000fa
:04004c00820300002b
:020000040000fa
:040050008203000027
:020000040000fa
:040054008203000023
:020000040000fa
:04005800820300001f
:020000040000fa
:04005c00820300001b
:020000040000fa
:040060008203000017
:020000040000fa
:040064008203000013
:020000040000fa
:04006800820300000f
:020000040000fa
:04006c00820300000b
:020000040000fa
:040070008203000007
:020000040000fa
:040074008203000003
:020000040000fa
:0400780082030000ff
:020000040000fa
:04007c0082030000fb
:020000040000fa
:0400800082030000f7
:020000040000fa
:0400840082030000f3
:020000040000fa
:0400880082030000ef
:020000040000fa
:04008c0082030000eb
:020000040000fa
:0400900082030000e7
:020000040000fa
:0400940082030000e3
:020000040000fa
:0400980082030000df
:020000040000fa
:04009c0082030000db
:020000040000fa
:0400a00082030000d7
:020000040000fa
:0400a40082030000d3
:020000040000fa
:0400a80082030000cf
:020000040000fa
:0400ac0082030000cb
:020000040000fa
:0400b00082030000c7
:020000040000fa
:0400b40082030000c3
:020000040000fa
:0400b80082030000bf
:020000040000fa
:0400bc0082030000bb
:020000040000fa
:0400c00082030000b7
:020000040000fa
:0400c40082030000b3
:020000040000fa
:0400c80082030000af
:020000040000fa
:0400cc0082030000ab
:020000040000fa
:0400d00082030000a7
:020000040000fa
:0400d40082030000a3
:020000040000fa
:0400d800820300009f
:020000040000fa
:0400dc00820300009b
:020000040000fa
:0400e0008203000097
:020000040000fa
:0400e4008203000093
:020000040000fa
:0400e800820300008f
:020000040000fa
:0400ec00820300008b
:020000040000fa
:0400f0008203000087
:020000040000fa
:0400f4008203000083
:020000040000fa
:0400f800820300007f
:020000040000fa
:0400fc00820300007b
:020000040000fa
:040100008203000076
:020000040000fa
:040104008203000072
:020000040000fa
:04010800820300006e
:020000040000fa
:04010c00820300006a
:020000040000fa
:040110008203000066
:020000040000fa
:040114008203000062
:020000040000fa
:04011800820300005e
:020000040000fa
:04011c00820300005a
:020000040000fa
:040120008203000056
:020000040000fa
:040124008203000052
:020000040000fa
:04012800820300004e
:020000040000fa
:04012c00820300004a
:020000040000fa
:040130008203000046
:020000040000fa
:040134008203000042
:020000040000fa
:04020800820300006d
:020000040000fa
:04020c0000030000eb
:020000040000fa
:0402100042030000a5
:020000040000fa
:0402140020030000c3
:020000040000fa
:04021800620300007d
:020000040000fa
:04021c008203000059
:020000040000fa
:040220008203000055
:020000040000fa
:040224008203000051
:020000040000fa
:04022800820300004d
:020000040000fa
:04022c008203000049
:020000040000fa
:040230008203000045
:020000040000fa
:040234008203000041
:020000040000fa
:04023800820300003d
:020000040000fa
:04023c008203000039
:020000040000fa
:040240008203000035
:020000040000fa
:040244008203000031
:020000040000fa
:04024800c8020000e8
:020000040000fa
:04024c008203000029
:020000040000fa
:040250008203000025
:020000040000fa
:040254008203000021
:020000040000fa
:04025800820300001d
:020000040000fa
:04025c008203000019
:020000040000fa
:040260008203000015
:020000040000fa
:040264008203000011
:020000040000fa
:04026800820300000d
:020000040000fa
:04026c008203000009
:020000040000fa
:040270008203000005
:020000040000fa
:040274008203000001
:020000040000fa
:0402780082030000fd
:020000040000fa
:04027c0082030000f9
:020000040000fa
:0402800082030000f5
:020000040000fa
:0402840082030000f1
:020000040000fa
:0402880082030000ed
:020000040000fa
:04028c0082030000e9
:020000040000fa
:0402900082030000e5
:020000040000fa
:0402940082030000e1
:020000040000fa
:0402980082030000dd
:020000040000fa
:04029c0082030000d9
:020000040000fa
:0402a00082030000d5
:020000040000fa
:0402a40082030000d1
:020000040000fa
:0402a80082030000cd
:020000040000fa
:0402ac0082030000c9
:020000040000fa
:0402b00082030000c5
:020000040000fa
:0402b40082030000c1
:020000040000fa
:0402b80082030000bd
:020000040000fa
:0402bc0082030000b9
:020000040000fa
:0402c00082030000b5
:020000040000fa
:0402c40082030000b1
:020000040000fa
:0402c80082030000ad
:020000040000fa
:0402cc0082030000a9
:020000040000fa
:0402d00082030000a5
:020000040000fa
:0402d40082030000a1
:020000040000fa
:0402d800820300009d
:020000040000fa
:0402dc008203000099
:020000040000fa
:0402e0008203000095
:020000040000fa
:0402e4008203000091
:020000040000fa
:0402e800820300008d
:020000040000fa
:0402ec008203000089
:020000040000fa
:0402f0008203000085
:020000040000fa
:0402f4008203000081
:020000040000fa
:0402f800820300007d
:020000040000fa
:0402fc008203000079
:020000040000fa
:040300008203000074
:020000040000fa
:040304008203000070
:020000040000fa
:04030800820300006c
:020000040000fa
:04030c008203000068
:020000040000fa
:040310008203000064
:020000040000fa
:040314008203000060
:020000040000fa
:04031800820300005c
:020000040000fa
:04031c008203000058
:020000040000fa
:040320008203000054
:020000040000fa
:040324008203000050
:020000040000fa
:04032800820300004c
:020000040000fa
:04032c008203000048
:020000040000fa
:040330008203000044
:020000040000fa
:040334008203000040
:020000040000fa
:10040000efa220000e7f22000e01880000000000f5
:10041000000020000000e000020032000001200087
:100420002002880014000700b80007000000e00068
:1004300003003a00204a200001002000020037009b
:100440000000200001002000810f70000100320038
:1004500014000700000020000000e000020032004d
:100460000000020000000000c003020000000000c5
:100470000040da000000fe004440a9000000200017
:100480000000e0000300320000002000a00188000e
:100490004440a800000006008a1f78008b1f7800e7
:1004a0000000060091018800800478000000eb0045
:1004b0001a003700e284440032a0b4009905ba0063
:1004c000e284440032a0b4009906ba00e2844400f9
:1004d00032a0b4000006eb00476fde00fd07b2005b
:1004e000636ce10003003a00ebff07000000eb0043
:1004f0000a003700606ce10004003a00005deb0088
:100500008b05e900fdff3e00040037006168e10053
:10051000010032000086eb000b00070019c7ba008b
:100520001905ba000e04e00003003a000a00e000da
:10053000e0ff3a0000000600fe07b2009e018800be
:100540008a047800f5ff3700395dba008b05e900b1
:100550000c003200295dba008b05e900080032006a
:100560000c00e00003003a00e284440032a0b40032
:10057000f5ff370019ddba008b05e900faff3a00f4
:100580008904e800e184440032a0b40000000600c1
:1005900000a0fe003400f800881f7800080020004a
:1005a000a80188004f0478000000fa003000200005
:1005b000401988002023a8000000000000198000d6
:1005c000610060000000e000fcff32002003a90091
:1005d0000018800010408800204080000080d1007a
:1005e000000c880010002000504088008500a90001
:1005f0000080fa003400f9000080fe000040060090
:100600003600f800809fbe00829fbe00849fbe001f
:10061000869fbe000000fa008020a9000000eb00c9
:10062000d60007000080fa004f03be004f02be0054
:100630004f01be004f00be003600f900004006002a
:100640003600f800809fbe00829fbe00849fbe00df
:10065000869fbe000000fa00cd0007008040a90080
:1006600010002000c50007000080fa004f03be0004
:100670004f02be004f01be004f00be003600f90021
:10068000004006003600f800809fbe00829fbe003a
:10069000849fbe00869fbe000000fa008060a90013
:1006a00020002000b50007000080fa004f03be00c4
:1006b0004f02be004f01be004f00be003600f900e1
:1006c000004006003600f800809fbe00829fbe00fa
:1006d000849fbe00869fbe000000fa008080a900b3
:1006e00030002000a50007000080fa004f03be0084
:1006f0004f02be004f01be004f00be003600f900a1
:10070000004006000040da000000fe000000050086
:020000040000fa
:100710000200fa00000f78001e00780060198800bf
:10072000000e2000001988002223ef0010f02100a5
:10073000201988003023ef0021e3a8000080fa0090
:10074000000006000000fa00000028009008880061
:10075000f0182000700888008500a9009500a80006
:1007600080002000000c8800000c8000100c880025
:10077000e0002000200c88000080fa000000060045
:100780000000fa00889fbe0088000700edff070008
:1007900070ff2f00deff07002b00370000408000b5
:1007a0001140800000014000e08020000000410076
:1007b00001087800004080000000e8000040880048
:1007c00001408000f0072000808f500001003400bd
:1007d0000028ef00104080006101b9003040800027
:1007e0004140800002004000838048003040880083
:1007f000414088003240800043408000004080003b
:1008000080004000e0802000008040001000780060
:10081000cf80de0000005100818059003040880008
:100820004140880030408000414080004909dd009f
:100830004704de0008047100c78cde000800780061
:10084000204088000a28ef00504080000000e000af
:10085000d2ff3a0000000000fbff37000000fa0062
:10086000c422ef00ca22ef00d022ef00d622ef0010
:10087000dc22ef00e222ef00e822ef00f06f2c0014
:10088000001688000080eb0030168800e001270089
:10089000601688000080eb0090168800f03f200072
:1008a000c0168800f01f2300f0168800f03c2f00cf
:1008b000201788006820ef006a20ef00c026ef00b4
:1008c000c626ef00cc26ef00d226ef00d826ef0098
:1008d000de26ef00e426ef00000c200060198800ff
:1008e0000080fa00000006000000fa00001023005b
:1008f000203a88004827ef007027ef007227ef00aa
:100900007427ef003200200080072000a10920009a
:10091000337420008049780081497800824978004a
:100920000001eb006004200071052000237420000a
:100930008049780081497800824978000080fa0077
:0409400000000600ad
:020000040000fa
:100944000e08000000020000000000000008000083
:100954000c000000000000000e0a0000200000004f
:10096400000000000c08000002000000020000006b
:08097400ffff0000000000007d
:020000040000fa
:10097c000200fa00000f78009e00780061408800a9
:10098c00ffff37000000fa00e0a02000800778008d
:10099c0060a22000000188000080fa000000060020
:1009ac000000fa00aaff070003000700cbff0700b6
:1009bc000080fa00000006000000fa000080fa0037
:0409cc000000060021
:020000040000fa
:020000040002f8
:04aff8009dfb0000bd
:020000040000fa
:020000040002f8
:04affc007f3f000093
:00000001FF
