:020000040000fa
:080000000002040000000000f2
:020000040000fa
:040008004a030000a7
:020000040000fa
:04000c00c802000026
:020000040000fa
:040010000a030000df
:020000040000fa
:04001400e8020000fe
:020000040000fa
:040018002a030000b7
:020000040000fa
:04001c004a03000093
:020000040000fa
:040020004a0300008f
:020000040000fa
:040024004a0300008b
:020000040000fa
:040028004a03000087
:020000040000fa
:04002c004a03000083
:020000040000fa
:040030004a0300007f
:020000040000fa
:040034004a0300007b
:020000040000fa
:040038004a03000077
:020000040000fa
:04003c004a03000073
:020000040000fa
:040040004a0300006f
:020000040000fa
:040044004a0300006b
:020000040000fa
:040048004a03000067
:020000040000fa
:04004c004a03000063
:020000040000fa
:040050004a0300005f
:020000040000fa
:040054004a0300005b
:020000040000fa
:040058004a03000057
:020000040000fa
:04005c004a03000053
:020000040000fa
:040060004a0300004f
:020000040000fa
:040064004a0300004b
:020000040000fa
:040068004a03000047
:020000040000fa
:04006c004a03000043
:020000040000fa
:040070004a0300003f
:020000040000fa
:040074004a0300003b
:020000040000fa
:040078004a03000037
:020000040000fa
:04007c004a03000033
:020000040000fa
:040080004a0300002f
:020000040000fa
:040084004a0300002b
:020000040000fa
:040088004a03000027
:020000040000fa
:04008c004a03000023
:020000040000fa
:040090004a0300001f
:020000040000fa
:040094004a0300001b
:020000040000fa
:040098004a03000017
:020000040000fa
:04009c004a03000013
:020000040000fa
:0400a0004a0300000f
:020000040000fa
:0400a4004a0300000b
:020000040000fa
:0400a8004a03000007
:020000040000fa
:0400ac004a03000003
:020000040000fa
:0400b0004a030000ff
:020000040000fa
:0400b4004a030000fb
:020000040000fa
:0400b8004a030000f7
:020000040000fa
:0400bc004a030000f3
:020000040000fa
:0400c0004a030000ef
:020000040000fa
:0400c4004a030000eb
:020000040000fa
:0400c8004a030000e7
:020000040000fa
:0400cc004a030000e3
:020000040000fa
:0400d0004a030000df
:020000040000fa
:0400d4004a030000db
:020000040000fa
:0400d8004a030000d7
:020000040000fa
:0400dc004a030000d3
:020000040000fa
:0400e0004a030000cf
:020000040000fa
:0400e4004a030000cb
:020000040000fa
:0400e8004a030000c7
:020000040000fa
:0400ec004a030000c3
:020000040000fa
:0400f0004a030000bf
:020000040000fa
:0400f4004a030000bb
:020000040000fa
:0400f8004a030000b7
:020000040000fa
:0400fc004a030000b3
:020000040000fa
:040100004a030000ae
:020000040000fa
:040104004a030000aa
:020000040000fa
:040108004a030000a6
:020000040000fa
:04010c004a030000a2
:020000040000fa
:040110004a0300009e
:020000040000fa
:040114004a0300009a
:020000040000fa
:040118004a03000096
:020000040000fa
:04011c004a03000092
:020000040000fa
:040120004a0300008e
:020000040000fa
:040124004a0300008a
:020000040000fa
:040128004a03000086
:020000040000fa
:04012c004a03000082
:020000040000fa
:040130004a0300007e
:020000040000fa
:040134004a0300007a
:020000040000fa
:040208004a030000a5
:020000040000fa
:04020c00c802000024
:020000040000fa
:040210000a030000dd
:020000040000fa
:04021400e8020000fc
:020000040000fa
:040218002a030000b5
:020000040000fa
:04021c004a03000091
:020000040000fa
:040220004a0300008d
:020000040000fa
:040224004a03000089
:020000040000fa
:040228004a03000085
:020000040000fa
:04022c004a03000081
:020000040000fa
:040230004a0300007d
:020000040000fa
:040234004a03000079
:020000040000fa
:040238004a03000075
:020000040000fa
:04023c004a03000071
:020000040000fa
:040240004a0300006d
:020000040000fa
:040244004a03000069
:020000040000fa
:040248004a03000065
:020000040000fa
:04024c004a03000061
:020000040000fa
:040250004a0300005d
:020000040000fa
:040254004a03000059
:020000040000fa
:040258004a03000055
:020000040000fa
:04025c004a03000051
:020000040000fa
:040260004a0300004d
:020000040000fa
:040264004a03000049
:020000040000fa
:040268004a03000045
:020000040000fa
:04026c004a03000041
:020000040000fa
:040270004a0300003d
:020000040000fa
:040274004a03000039
:020000040000fa
:040278004a03000035
:020000040000fa
:04027c004a03000031
:020000040000fa
:040280004a0300002d
:020000040000fa
:040284004a03000029
:020000040000fa
:040288004a03000025
:020000040000fa
:04028c004a03000021
:020000040000fa
:040290004a0300001d
:020000040000fa
:040294004a03000019
:020000040000fa
:040298004a03000015
:020000040000fa
:04029c004a03000011
:020000040000fa
:0402a0004a0300000d
:020000040000fa
:0402a4004a03000009
:020000040000fa
:0402a8004a03000005
:020000040000fa
:0402ac004a03000001
:020000040000fa
:0402b0004a030000fd
:020000040000fa
:0402b4004a030000f9
:020000040000fa
:0402b8004a030000f5
:020000040000fa
:0402bc004a030000f1
:020000040000fa
:0402c0004a030000ed
:020000040000fa
:0402c4004a030000e9
:020000040000fa
:0402c8004a030000e5
:020000040000fa
:0402cc004a030000e1
:020000040000fa
:0402d0004a030000dd
:020000040000fa
:0402d4004a030000d9
:020000040000fa
:0402d8004a030000d5
:020000040000fa
:0402dc004a030000d1
:020000040000fa
:0402e0004a030000cd
:020000040000fa
:0402e4004a030000c9
:020000040000fa
:0402e8004a030000c5
:020000040000fa
:0402ec004a030000c1
:020000040000fa
:0402f0004a030000bd
:020000040000fa
:0402f4004a030000b9
:020000040000fa
:0402f8004a030000b5
:020000040000fa
:0402fc004a030000b1
:020000040000fa
:040300004a030000ac
:020000040000fa
:040304004a030000a8
:020000040000fa
:040308004a030000a4
:020000040000fa
:04030c004a030000a0
:020000040000fa
:040310004a0300009c
:020000040000fa
:040314004a03000098
:020000040000fa
:040318004a03000094
:020000040000fa
:04031c004a03000090
:020000040000fa
:040320004a0300008c
:020000040000fa
:040324004a03000088
:020000040000fa
:040328004a03000084
:020000040000fa
:04032c004a03000080
:020000040000fa
:040330004a0300007c
:020000040000fa
:040334004a03000078
:020000040000fa
:100400002f8220000e7f22000e01880000000000d5
:10041000000020000000e000020032000001200087
:1004200020028800140007009c0007000000e00084
:1004300003003a008078200001002000020037000d
:100440000000200001002000810f70000100320038
:1004500014000700000020000000e000020032004d
:100460000000020000000000fe0502000000000085
:100470000040da000000fe004440a9000000200017
:100480000000e0000300320000002000a00188000e
:100490004440a800000006008a1f78008b1f7800e7
:1004a0000000060091018800800478000000eb0045
:1004b0001a003700e284440032a0b4009905ba0063
:1004c000e284440032a0b4009906ba00e2844400f9
:1004d00032a0b4000006eb00476fde00fd07b2005b
:1004e000636ce10003003a00ebff07000000eb0043
:1004f0000a003700606ce10004003a00005deb0088
:100500008b05e900fdff3e00040037006168e10053
:10051000010032000086eb000b00070019c7ba008b
:100520001905ba000e04e00003003a000a00e000da
:10053000e0ff3a0000000600fe07b2009e018800be
:100540008a047800f5ff3700395dba008b05e900b1
:100550000c003200295dba008b05e900080032006a
:100560000c00e00003003a00e284440032a0b40032
:10057000f5ff370019ddba008b05e900faff3a00f4
:100580008904e800e184440032a0b40000000600c1
:100590003600f800809fbe00829fbe00849fbe0090
:1005a000869fbe000000fa008020a9000000eb003a
:1005b0004b0207000080fa004f03be004f02be004e
:1005c0004f01be004f00be003600f900004006009b
:1005d0003600f800809fbe00829fbe00849fbe0050
:1005e000869fbe000000fa00420207008040a9007a
:1005f000100020003a0207000080fa004f03be00fe
:100600004f02be004f01be004f00be003600f90091
:10061000004006003600f800809fbe00829fbe00aa
:10062000849fbe00869fbe000000fa008060a90083
:10063000200020002a0207000080fa004f03be00bd
:100640004f02be004f01be004f00be003600f90051
:10065000004006003600f800809fbe00829fbe006a
:10066000849fbe00869fbe000000fa008080a90023
:10067000300020001a0207000080fa004f03be007d
:100680004f02be004f01be004f00be003600f90011
:10069000004006000040da000000fe0000000500f7
:1006a00014002000390037004f89de0082017800f5
:1006b000510037006011b8005f003700889fbe000e
:1006c0008a9fbe008c1f7800b0000700b70033007f
:1006d00003866c006450e100240032006420e100d5
:1006e000270032006150e100220032006120e10069
:1006f000210032008b854200eb07b1000134b800c5
:10070000003ab8000804420089844a00013ab8005f
:100710000030b8008880400009014a00040033001e
:100720000000400081804800020149008b05e9007b
:10073000c909dd00830170000100320013002000b0
:10074000c814de004814dd004709de001200b200c4
:10075000c808de00088470006600070001f0a100f0
:100760000cf0a70001f0a000990037006120e10023
:100770009b0032000801be000200be00f7ff3700f8
:100780006150e100fcff3a0095003700889fbe00f1
:100790008a9fbe00841f78007c0007004f0078000d
:1007a00011003300f0ff2f00838f6c0006003b0028
:1007b000040565000a00a7000800370009f0a6003c
:1007c0001000200008003700820f5400838f5c0067
:1007d000030039001000200001003e00000020004e
:1007e00009f0a7000000ea004f05be004f04be005c
:1007f0000000e00000000600881f78000304780075
:100800000300e00007003d0060001000e0801800d9
:1008100060011900e081190002003b0001f02d0089
:10082000030037000400070008f0a70001f0a00053
:100830004f04780000000600889fbe008a9fbe001b
:1008400000827000040271000482710026003200f0
:100850000004be000200be006011b8006b09200059
:10086000950220000182cf000a0039000541b10045
:100870000082cf00070039000541b1000982cf0096
:10088000040039000541b1000882cf0001003900a1
:100890000541b10005425200120032000a003b003f
:1008a00082817100610164008100d1000080d30069
:1008b0008984d3000884d3008b05e8000442e80053
:1008c000f7ff3a00070037000804440089844c0011
:1008d00000004800818048008b05e9000442e900df
:1008e000f9ff3a00030007004f05be004f04be00a9
:1008f0000000060081002000618055000b003d00d3
:100900000b00200061fe2f000100e1001d003400fb
:1009100082817100610164008904d1000884d300e0
:100920000000e800faff3a00710020006100640056
:1009300003007000020060000900320061044400fe
:10094000e0844c000988a500050032008b05e80012
:100950006808e10002003a008904d1000884d3004d
:10096000f20f20000258e10005003d00c75ddd00e8
:10097000f907b200898075000800780000000600c1
:100980000bf827008b007800000005000004be0073
:10099000160007000003be000405be000200be00f2
:1009a00012000700844f7500000006000200be0020
:1009b0006450e100050036006420e10002003600ca
:1009c0000968a30001003a000800be000160a00011
:1009d0004f0678004f05be004f04be000000060021
:1009e000f0ff2f00f1ff2700f9ff3700c70ade00f4
:1009f000f107b200f50fb20008003200e1cf42006b
:100a0000020032000170a00024000500810f700078
:100a1000010032000408050044000500810f700049
:100a200002003a00140005008502e90000004000c1
:100a300081c04800fcff3b000170a00024000500bd
:020000040000fa
:100a40000200fa00000f780000002800200888004b
:100a50000021ef00000000001e0078004400dd00cf
:100a60008000780000088000808f5000faff3e0070
:100a70000080fa00000006000200fa00889fbe0015
:100a80008a1f7800000f78000003280020088800e3
:100a90000021ef0000000000000880008000eb0053
:100aa00004ff07000004be001e007800cf80de00b7
:100ab000fdfe070002002000a3272400fffe070020
:100ac0001ac0b3000001be000800be00f4fe07001b
:100ad0000000e000010035000045eb000a04e000e2
:100ae000edff3a004f0578004f04be000080fa0089
:100af000000006000200fa00000f78001e007800d7
:100b0000201088000000000040108000700060008d
:100b10000000e000fcff3a000742a90007e2a8003d
:100b20000080fa00000006000000fa00a00020008b
:100b3000c3ff07000602a80000000000301080007c
:100b4000610060000000e000fcff3a00a00020000f
:100b5000bbff07000080fa00000006000000fa005a
:100b6000a0002000b6ff07000642a8000000000019
:100b700030108000640060000000e000fcff3a00dc
:100b8000a0002000aeff07000080fa000000060071
:100b90000200fa00004f78000000000040108000c2
:100ba000610060000000e000fcff3a001e00fb0056
:100bb00010108800a0002000a1ff07000080fa00ac
:100bc000000006000000fa000662a8000000000015
:100bd00040108000620060000000e000fcff320076
:100be0000682a800a000200095ff070000108000ea
:100bf000004078000080fa00000006000a00fa00b9
:100c0000cb000700c022ef00c222ef00d009200075
:100c1000b8ff0700a000200089ff0700c2ff0700ff
:100c20004006200086ff070000c9b300d8ff070078
:100c30004006200082ff07000040eb00d4ff0700c1
:100c4000400620007eff0700c4ff0700b6ff070034
:100c5000400620007aff070010c9b300ccff070050
:100c60004006200076ff0700d6ff0700004f7800ff
:100c70004006200072ff0700d2ff070010479800cf
:100c8000400620006eff0700b4ff07001e00fb00b7
:100c9000101688009e00fb00803e200000017800b6
:100ca000110009008200d800100798009e00fb0088
:100cb000803e200000017800110009008200d80069
:100cc0008000fd00004f78001e01fb00b0472100ae
:100cd0000090b900c388de004f90de000080500015
:100ce000004078000000fb00200798001e00fb0079
:100cf000b14721000181b9004399de00cf80de00b9
:100d000001015100410620000191b90082007800e4
:100d100001005000004f78001e01fb0070662600a5
:100d20000090b900c288de004f90de0000805000c5
:100d3000004078000000fb00300798001e00fb0018
:100d4000716626000181b9004299de00cf80de0085
:100d5000810051006a09b90082007800010050004a
:100d6000004078000000fb00400798006eff07007d
:100d70004006200032ff070020ceb30084ff0700aa
:100d8000400620002eff070060c7b30080ff070069
:100d9000400620002aff07001e0090000040780057
:100da0007bff07004006200025ff07002e00900073
:100db0000040780076ff07004006200020ff070073
:100dc0003e0090000040780071ff070040062000c0
:100dd0001bff07004e009000004078006cff0700ea
:100de0004006200016ff07005cff0700401f2000a0
:100df00021ff070089ff37000000fa00c422ef003e
:100e0000ca22ef00d022ef00d622ef00dc22ef0052
:100e1000e222ef00e822ef00f06f2c0000168800bd
:100e20000080eb0030168800e00127006016880083
:100e30000080eb0090168800f03f2000c01688006c
:100e4000f01f2300f0168800f03c2f0020178800c8
:100e50006820ef006a20ef00c026ef00c626ef00f2
:100e6000cc26ef00d226ef00d826ef00de26ef00da
:100e7000e426ef00000c2000601988000080fa00d2
:100e8000000006000000fa0000102300203a88004d
:100e90004827ef007027ef007227ef007427ef005c
:100ea0003200200080072000a109200033742000b8
:100eb0008049780081497800824978000001eb0080
:100ec0006004200071052000237420008049780010
:100ed00081497800824978000080fa00000006000d
:100ee0000200fa00000f78009e00780001408800a0
:100ef000ffff37000000fa00208020008007780004
:100f0000a0812000000188000080fa000000060097
:020000040000fa
:100f1000020800002000000000000000000800009f
:100f20000200000002000000ffff000000000000bf
:020000040000fa
:100f30000000fa00b0ff0700d2ff07000200070020
:100f40000080fa00000006000000fa000080fa00ad
:040f50000000060097
:020000040000fa
:020000040002f8
:04aff8009dfb0000bd
:020000040000fa
:020000040002f8
:04affc007f3f000093
:00000001FF
