:020000040000fa
:080000000002040000000000f2
:020000040000fa
:040008004e030000a3
:020000040000fa
:04000c00cc02000022
:020000040000fa
:040010000e030000db
:020000040000fa
:04001400ec020000fa
:020000040000fa
:040018002e030000b3
:020000040000fa
:04001c004e0300008f
:020000040000fa
:040020004e0300008b
:020000040000fa
:040024004e03000087
:020000040000fa
:040028004e03000083
:020000040000fa
:04002c004e0300007f
:020000040000fa
:040030004e0300007b
:020000040000fa
:040034004e03000077
:020000040000fa
:040038004e03000073
:020000040000fa
:04003c004e0300006f
:020000040000fa
:040040004e0300006b
:020000040000fa
:040044004e03000067
:020000040000fa
:040048004e03000063
:020000040000fa
:04004c004e0300005f
:020000040000fa
:040050004e0300005b
:020000040000fa
:040054004e03000057
:020000040000fa
:040058004e03000053
:020000040000fa
:04005c004e0300004f
:020000040000fa
:040060004e0300004b
:020000040000fa
:040064004e03000047
:020000040000fa
:040068004e03000043
:020000040000fa
:04006c004e0300003f
:020000040000fa
:040070004e0300003b
:020000040000fa
:040074004e03000037
:020000040000fa
:040078004e03000033
:020000040000fa
:04007c004e0300002f
:020000040000fa
:040080004e0300002b
:020000040000fa
:040084004e03000027
:020000040000fa
:040088004e03000023
:020000040000fa
:04008c004e0300001f
:020000040000fa
:040090004e0300001b
:020000040000fa
:040094004e03000017
:020000040000fa
:040098004e03000013
:020000040000fa
:04009c004e0300000f
:020000040000fa
:0400a0004e0300000b
:020000040000fa
:0400a4004e03000007
:020000040000fa
:0400a8004e03000003
:020000040000fa
:0400ac004e030000ff
:020000040000fa
:0400b0004e030000fb
:020000040000fa
:0400b4004e030000f7
:020000040000fa
:0400b8004e030000f3
:020000040000fa
:0400bc004e030000ef
:020000040000fa
:0400c0004e030000eb
:020000040000fa
:0400c4004e030000e7
:020000040000fa
:0400c8004e030000e3
:020000040000fa
:0400cc004e030000df
:020000040000fa
:0400d0004e030000db
:020000040000fa
:0400d4004e030000d7
:020000040000fa
:0400d8004e030000d3
:020000040000fa
:0400dc004e030000cf
:020000040000fa
:0400e0004e030000cb
:020000040000fa
:0400e4004e030000c7
:020000040000fa
:0400e8004e030000c3
:020000040000fa
:0400ec004e030000bf
:020000040000fa
:0400f0004e030000bb
:020000040000fa
:0400f4004e030000b7
:020000040000fa
:0400f8004e030000b3
:020000040000fa
:0400fc004e030000af
:020000040000fa
:040100004e030000aa
:020000040000fa
:040104004e030000a6
:020000040000fa
:040108004e030000a2
:020000040000fa
:04010c004e0300009e
:020000040000fa
:040110004e0300009a
:020000040000fa
:040114004e03000096
:020000040000fa
:040118004e03000092
:020000040000fa
:04011c004e0300008e
:020000040000fa
:040120004e0300008a
:020000040000fa
:040124004e03000086
:020000040000fa
:040128004e03000082
:020000040000fa
:04012c004e0300007e
:020000040000fa
:040130004e0300007a
:020000040000fa
:040134004e03000076
:020000040000fa
:040208004e030000a1
:020000040000fa
:04020c00cc02000020
:020000040000fa
:040210000e030000d9
:020000040000fa
:04021400ec020000f8
:020000040000fa
:040218002e030000b1
:020000040000fa
:04021c004e0300008d
:020000040000fa
:040220004e03000089
:020000040000fa
:040224004e03000085
:020000040000fa
:040228004e03000081
:020000040000fa
:04022c004e0300007d
:020000040000fa
:040230004e03000079
:020000040000fa
:040234004e03000075
:020000040000fa
:040238004e03000071
:020000040000fa
:04023c004e0300006d
:020000040000fa
:040240004e03000069
:020000040000fa
:040244004e03000065
:020000040000fa
:040248004e03000061
:020000040000fa
:04024c004e0300005d
:020000040000fa
:040250004e03000059
:020000040000fa
:040254004e03000055
:020000040000fa
:040258004e03000051
:020000040000fa
:04025c004e0300004d
:020000040000fa
:040260004e03000049
:020000040000fa
:040264004e03000045
:020000040000fa
:040268004e03000041
:020000040000fa
:04026c004e0300003d
:020000040000fa
:040270004e03000039
:020000040000fa
:040274004e03000035
:020000040000fa
:040278004e03000031
:020000040000fa
:04027c004e0300002d
:020000040000fa
:040280004e03000029
:020000040000fa
:040284004e03000025
:020000040000fa
:040288004e03000021
:020000040000fa
:04028c004e0300001d
:020000040000fa
:040290004e03000019
:020000040000fa
:040294004e03000015
:020000040000fa
:040298004e03000011
:020000040000fa
:04029c004e0300000d
:020000040000fa
:0402a0004e03000009
:020000040000fa
:0402a4004e03000005
:020000040000fa
:0402a8004e03000001
:020000040000fa
:0402ac004e030000fd
:020000040000fa
:0402b0004e030000f9
:020000040000fa
:0402b4004e030000f5
:020000040000fa
:0402b8004e030000f1
:020000040000fa
:0402bc004e030000ed
:020000040000fa
:0402c0004e030000e9
:020000040000fa
:0402c4004e030000e5
:020000040000fa
:0402c8004e030000e1
:020000040000fa
:0402cc004e030000dd
:020000040000fa
:0402d0004e030000d9
:020000040000fa
:0402d4004e030000d5
:020000040000fa
:0402d8004e030000d1
:020000040000fa
:0402dc004e030000cd
:020000040000fa
:0402e0004e030000c9
:020000040000fa
:0402e4004e030000c5
:020000040000fa
:0402e8004e030000c1
:020000040000fa
:0402ec004e030000bd
:020000040000fa
:0402f0004e030000b9
:020000040000fa
:0402f4004e030000b5
:020000040000fa
:0402f8004e030000b1
:020000040000fa
:0402fc004e030000ad
:020000040000fa
:040300004e030000a8
:020000040000fa
:040304004e030000a4
:020000040000fa
:040308004e030000a0
:020000040000fa
:04030c004e0300009c
:020000040000fa
:040310004e03000098
:020000040000fa
:040314004e03000094
:020000040000fa
:040318004e03000090
:020000040000fa
:04031c004e0300008c
:020000040000fa
:040320004e03000088
:020000040000fa
:040324004e03000084
:020000040000fa
:040328004e03000080
:020000040000fa
:04032c004e0300007c
:020000040000fa
:040330004e03000078
:020000040000fa
:040334004e03000074
:020000040000fa
:10040000ef8520000e7f22000e0188000000000012
:10041000000020000000e000020032000001200087
:1004200020028800140007009e0007000000e00082
:1004300003003a00402221000100200002003700a2
:100440000000200001002000810f70000100320038
:1004500014000700000020000000e000020032004d
:1004600000000200000000006c100200000000000c
:100470000040da000000fe004440a900a001200076
:100480000000e0000300320000002000a00188000e
:100490004440a800000006008a1f78008b1f7800e7
:1004a0000000060091018800800478000000eb0045
:1004b0001a003700e284440032a0b4009905ba0063
:1004c000e284440032a0b4009906ba00e2844400f9
:1004d00032a0b4000006eb00476fde00fd07b2005b
:1004e000636ce10003003a00ebff07000000eb0043
:1004f0000a003700606ce10004003a00005deb0088
:100500008b05e900fdff3e00040037006168e10053
:10051000010032000086eb000b00070019c7ba008b
:100520001905ba000e04e00003003a000a00e000da
:10053000e0ff3a0000000600fe07b2009e018800be
:100540008a047800f5ff3700395dba008b05e900b1
:100550000c003200295dba008b05e900080032006a
:100560000c00e00003003a00e284440032a0b40032
:10057000f5ff370019ddba008b05e900faff3a00f4
:100580008904e800e184440032a0b40000000600c1
:1005900024050400000000003600f800809fbe0023
:1005a000829fbe00849fbe00869fbe000000fa00ae
:1005b0008020a9000000eb00dd0707000080fa00a2
:1005c0004f03be004f02be004f01be004f00be00f1
:1005d0003600f900004006003600f800809fbe009b
:1005e000829fbe00849fbe00869fbe000000fa006e
:1005f000d40707008040a90010002000cc070700a6
:100600000080fa004f03be004f02be004f01be0043
:100610004f00be003600f900004006003600f8002a
:10062000809fbe00829fbe00849fbe00869fbe004a
:100630000000fa008060a90020002000bc0707002d
:100640000080fa004f03be004f02be004f01be0003
:100650004f00be003600f900004006003600f800ea
:10066000809fbe00829fbe00849fbe00869fbe000a
:100670000000fa008080a90030002000ac070700cd
:100680000080fa004f03be004f02be004f01be00c3
:100690004f00be003600f900004006000040da00be
:1006a0000000fe00000005001400200039003700a3
:1006b0004f89de0082017800510037006011b800d8
:1006c0005f003700889fbe008a9fbe008c1f7800a5
:1006d000b0000700b700330003866c006450e100ef
:1006e000240032006420e100270032006150e10064
:1006f000220032006120e100210032008b8542009f
:10070000eb07b1000134b800003ab8000804420019
:1007100089844a00013ab8000030b800888040005f
:1007200009014a00040033000000400081804800b5
:10073000020149008b05e900c909dd008301700051
:100740000100320013002000c814de004814dd0050
:100750004709de001200b200c808de0008847000fd
:100760006600070001f0a1000cf0a70001f0a00056
:10077000990037006120e1009b0032000801be00b3
:100780000200be00f7ff37006150e100fcff3a00b5
:1007900095003700889fbe008a9fbe00841f7800a6
:1007a0007c0007004f00780011003300f0ff2f009d
:1007b000838f6c0006003b00040565000a00a7005b
:1007c0000800370009f0a6001000200008003700dc
:1007d000820f5400838f5c0003003900100020005a
:1007e00001003e000000200009f0a7000000ea0020
:1007f0004f05be004f04be000000e00000000600f0
:10080000881f7800030478000300e00007003d0023
:1008100060001000e080180060011900e0811900fc
:1008200002003b0001f02d00030037000400070028
:1008300008f0a70001f0a0004f04780000000600b7
:10084000889fbe008a9fbe00008270000402710073
:1008500004827100260032000004be000200be00c7
:100860006011b8006b092000950220000182cf00c2
:100870000a0039000541b1000082cf0007003900ad
:100880000541b1000982cf00040039000541b100e3
:100890000882cf00010039000541b1000542520035
:1008a000120032000a003b00828171006101640085
:1008b0008100d1000080d3008984d3000884d30054
:1008c0008b05e8000442e800f7ff3a000700370014
:1008d0000804440089844c000000480081804800de
:1008e0008b05e9000442e900f9ff3a000300070024
:1008f0004f05be004f04be0000000600810020002e
:10090000618055000b003d000b00200061fe2f00b0
:100910000100e1001d00340082817100610164006a
:100920008904d1000884d3000000e800faff3a00ef
:10093000710020006100640003007000020060008c
:100940000900320061044400e0844c000988a500dd
:10095000050032008b05e8006808e10002003a005b
:100960008904d1000884d300f20f20000258e1006e
:1009700005003d00c75ddd00f907b2008980750004
:1009800008007800000006000bf827008b007800b4
:10099000000005000004be00160007000003be00b2
:1009a0000405be000200be0012000700844f75005f
:1009b000000006000200be006450e10005003600a1
:1009c0006420e100020036000968a30001003a003b
:1009d0000800be000160a0004f0678004f05be0071
:1009e0004f04be0000000600f0ff2f00f1ff2700bb
:1009f000f9ff3700c70ade00f107b200f50fb200b9
:100a000008003200e1cf4200020032000170a00075
:100a100024000500810f7000010032000408050069
:100a200044000500810f700002003a001400050028
:100a30008502e9000000400081c04800fcff3b0047
:100a40000170a00024000500881f780002047800cf
:100a500008017800c4000700080040004f04780037
:100a6000000006000000fa00881f780000047800eb
:100a7000ea8157003fb99700880078004052200073
:100a8000070007000000e000020035008040eb0096
:100a9000017478004f0478000080fa00000006001e
:100aa0006200fa00889fbe008a1f78000005780067
:100ab00081047800020478008300780080f92f0018
:100ac0000f004000770107009a979f00a9979f00a9
:100ad0000000eb00b09f9f001885fb008a04fb001c
:100ae0000a05ea004f55de0050022000808f5400b6
:100af0000d003200e10f55000b003a000a017800aa
:100b0000880078002f9097009f91970003000100c4
:100b1000a0979f000000e0008e0032003f989700f1
:100b20000000e800b09f9f000a044400500220002b
:100b3000808f5400040032000900e000e6ff3a0014
:100b40003f989700840037000000eb00909f9f00c3
:100b5000809f9f00f0979f00e0979f00d0979f0095
:100b6000c0979f00070037008185200001005000da
:100b700000004000c184200061007800df989700e9
:100b800001007000d09f9f0088047800090478005d
:100b9000384578008a00fb00808520007900070036
:100ba0000000e000f0ff3a00a1c2b300814f550001
:100bb0000e003a00cf8897000180e900c08f9f00a7
:100bc00010007800c09f9f000000e00005003d007d
:100bd0000000ea00c09f9f005f9897000020a000df
:100be000d09f9f000904e8000f003700c09f9f00be
:100bf0000000eb0005003700f2ff2700820f5000d5
:100c0000020032006a01b900028040000904780045
:100c100088047800b900fb000103b100e98f50009f
:100c2000f5ff3600c09f9f00e0c2b300984f100050
:100c3000020032000080eb0019003700a0c2b300b0
:100c4000d84f100007003a00cf8897000180e900d4
:100c5000c08f9f0010007800a09f9f000804e8004c
:100c6000100037000000eb00a09f9f008800780074
:100c700005003700f3ff2700830f50000200320009
:100c80006a02b9000400410001047800880078007d
:100c90003101fb000203b100e90f5100f5ff3600fe
:100ca000a09f9f00984478008900fb0040842000aa
:100cb000340007000000e000020032000804e800f1
:100cc000010037008044eb00c97f9f0080c6b3005d
:100cd00080cf540004003a0098cf14000a003a0074
:100ce0006640500006003700c0c6b30080cf5400f5
:100cf00005003a0098cf140003003a006540400018
:100d0000c07f9f000804e8001801fb00e3fb2f00f0
:100d10008f81410081f92f008f804000a0f92f00c2
:100d20000f004000e10007000000e00009003a0069
:100d3000e1fb2f008f804000a0f92f000f00400042
:100d40001c0007000000e000020035000804e80075
:100d500061ff37000080eb004f0578004f04be00b4
:100d60000080fa00000006008001780002003700d1
:100d7000b15978000201e9000200e000fcff3a00ee
:100d800000000600020037000304e0000600320005
:100d90000001780002007800b041780081cf510056
:100da000f9ff3a00010037000001eb000200780073
:100db000000006000400fa00889fbe008a9fbe0063
:100dc0008c1f78000004780001067800f80d900070
:100dd00078009000808555000808900080855500b7
:100de00018089000808555002808900080855500df
:100df000380890008085550048089000808555008f
:100e00000002220090bf9f0000032300a0bf9f00ac
:100e1000081090000028a30015003a000b00e00025
:100e2000130034000b0578008a047800e20f5500a7
:100e30000100360029002000c80190000901780057
:100e4000ee80570058009000030001005004980005
:100e50000000e0008c0032006808900009004000ab
:100e6000600c9800090555004240a900eeff3c00c7
:100e7000780190000200e0000c003400c8019000ee
:100e80008c00780058009000030001005004980086
:100e90008080eb000000e0007c003200e808900059
:100ea0007800900000804000600c9800880c900052
:100eb0000900e0001100340009057800e28f5400b9
:100ec000010036002a002000c80190000a017800c5
:100ed000ec80570058009000030001005004980077
:100ee0000000e00068003200680890000a0040003e
:100ef000600c98008a845400edff370018099000b8
:100f00000200e0000c003400c8019000e8009000ee
:100f10005800900003000100500498008080eb000e
:100f20000000e00059003200e80890001808900026
:100f300000804000600c9800a80c90000900e000c0
:100f40001100340009057800e28f540001003600da
:100f50002a002000c80190000a017800ec805700a8
:100f60005800900003000100500498000000e000c9
:100f700045003200680890000a004000600c9800ac
:100f80008a845400edff3700380990000200e00029
:100f90000e003400e80090001808900080804000a7
:100fa000c801900058009000030001005004980010
:100fb0008080eb000000e00034003200e808900080
:100fc0003808900000804000600c9800c80c900029
:100fd0000900e0001100340009057800e28f540098
:100fe000010036002a002000c80190000a017800a4
:100ff000ec80570058009000030001005004980056
:101000000000e00020003200680890000a00400064
:10101000600c98008a845400edff3700081090009f
:101020008000eb000028a300180032000b00e00055
:10103000160034008b04780009057800e28f540014
:10104000010036002a002000c80190000a01780043
:10105000ee805700580090000300010050049800f3
:101060000000e00008003200680890000a0040001c
:10107000600c98008a8454004240a900eeff3c00b6
:101080008000eb00010037008080eb000100780059
:101090004f0678004f05be004f04be000080fa00e6
:1010a000000006000108780000000600889fbe00ce
:1010b0008a9fbe00e4c6b300844f5100be003200d8
:1010c00010003c006b425200844f51001800320067
:1010d00005003c0054c2b300844f5100f6003200ba
:1010e00084c5b3000f00370044c6b300844f5100dd
:1010f0001400320065424200844f5100f1003a0072
:101100001000370004c7b300844f5100dd003200e7
:101110005600350065424200844f510053003200b2
:1011200063424200844f5100e6003a004f0037000e
:101130001181e90082087800f000900012417800e7
:10114000de00370020629000c5c6b300854f520014
:1011500007003a0091027800648252008408780007
:101160001402be004fabde00860378001400370087
:1011700015c7b300854f520003003a0011047800f0
:101180006802540005003700a5c6b300854f520021
:1011900006003a00910478006882540084087800c0
:1011a0005403be004402be00050037001182e9006e
:1011b0008408780014027800cfa2de00612bb90009
:1011c0000498be000690be00a060900088c6b300e0
:1011d00088cf50000d00320028c6b30088cf5000e1
:1011e00004003a000402fb00cfa2de00612bb9002c
:1011f0000800370048c7b30088cf50000300320012
:101200006644440088cf500004003a00cfa2de00bc
:10121000612bb9000498be000690be003002be00eb
:101220002003be00f0009000e00f5200e08f5a0053
:10123000e00f5b00e08f5b0002003d00d4c2b30012
:1012400008003700001290000418a30002003200ca
:10125000b4c2b300030037000408a30051003200f9
:1012600004c2b30084f178004c0037002062900083
:10127000c5c6b300854f520008003a00110578003a
:1012800064025500840878001404be006055b8005c
:101290000802be000a03be001400370015c7b300e1
:1012a000854f520003003a00910478006882540090
:1012b00005003700a5c6b300854f520006003a006e
:1012c0001105780068025500840878005403be00b8
:1012d0004402be00050037001182e900840878004e
:1012e000140278008002eb006033b8000498be005e
:1012f0000690be00a060900088c6b30088cf500062
:101300000d00320028c6b30088cf500004003a0018
:101310000482fb008002eb006033b8000800370055
:1013200048c7b30088cf5000030032006644440031
:1013300088cf500004003a008002eb006033b80010
:101340000498be000690be00801090000138a300f3
:10135000140032003002be002003be00e00f520035
:10136000e08f5a00e00f5b00e08f5b000d00320061
:1013700081c7b300814f51000300320081c5b30023
:10138000814f510007003a00f000900004c3b30001
:1013900084f178008100e80082f178008100e800a3
:1013a00071009800f0009000818141006300980076
:1013b000824078003e003700a0619000c4c6b300b0
:1013c0001181e90084cf5100220032000a003c0064
:1013d0006442520084cf51002500320004c2e8006c
:1013e00084cf5100130032006842520084cf510074
:1013f0001e003a000a00370044c7b30084cf5100f2
:101400001b0032006642420084cf510018003200b7
:101410006942520084cf510014003a0005003700a1
:101420008208780092007800405890008048780048
:101430002c0037008208780092007800600a900043
:10144000cfa2de00612bb9008498be008690be005a
:10145000240037008208780092007800600990002c
:10146000cf91de008288be001e0037001181e900a6
:101470008208780092007800600890008008780068
:10148000180037001181e900820878001202780004
:10149000cfa2de00612bb9000498be000690be000a
:1014a000f0009000818141006300980081c7b30083
:1014b000100007000b003700f000900082f1780068
:1014c00006003700f0009000818141000204e00036
:1014d00001003a0052c2b300824978008100e8005e
:1014e000710098000000eb004f05be004f04be00e5
:1014f00000000600fc874700889fbe008a9fbe0050
:101500008c9fbe008e1f78000006780080c5b30057
:1015100080cf50000a0032007740400080cf50005a
:101520000a0032006940400080cf50000b003200ba
:101530003081200080bf9f00ae0020000a003700ed
:101540002280200082bf9f000600370033812000e8
:1015500083bf9f008e0020000300370034812000ed
:1015600084bf9f000e0120003c02be002c03be0081
:101570000605be000404be0040c6b30080cf500084
:10158000030032006540400080cf50000b003a005d
:10159000e00f5200e08f5a00e00f5b00e08f5b002d
:1015a00006003d006000b8006011b800040450005f
:1015b000858458000605590087855900e80f5700b3
:1015c0000400320040002000f00f570038003a00bd
:1015d0000100370030002000e00f5400e08f5c0075
:1015e000e00f5d00e08f5d0004003a00dc08900031
:1015f0008d0120000100e000060032008e00e900ad
:10160000888060008fba9700e5c07800f1ef9f00f6
:101610007d012000800078008100e9000500330092
:101620008b05d1000a85d3008984d3000884d300b8
:10163000f9ff3700089ebe000a96be001200370070
:101640008d06e9008e00e900848060000fb99700e4
:10165000e2c1780082fd2f000f01410003f17e00fe
:10166000800078008100e900050033008783d10005
:101670000683d3008582d3000482d300f9ff3700ac
:10168000049ebe000696be003c02be002c03be00b7
:10169000e00f5200e08f5a00e00f5b00e08f5b002c
:1016a0008b0034000d00e000e5ff3c0088003700af
:1016b0002c60900081c6b300814f50000b003200b7
:1016c00006003c000004e00008003200e6c05000c4
:1016d000814f50004e003a0004003700c1c6b300ed
:1016e000814f50004a003a00210037000800e00016
:1016f00004003a005c0890008d0120000000e0002a
:1017000006003200110009000e84d8000fb99700be
:10171000e2c07800f1ef9f007d0120001100090078
:101720000e84d8000a003700110009000e04d8000a
:101730008d06e9000e81b900020454008fb89700ad
:1017400061417c0081fd2f008f80400082f07e008f
:10175000000478000800e000020032000d00e00004
:10176000f1ff3c00cfc4de00614db9002500370019
:10177000e00f5400e08f5c0004003a005c08900029
:101780008d0120000000e000070032006171b90007
:101790000800be00a50007008fb99700e34178005c
:1017a000f3ef9f007d0120006171b9000800be00c9
:1017b0008e0007000b0037006171b9000800be0001
:1017c0007b0007008d06e90000f1b9000204540017
:1017d0000fba9700e4427c0084fd2f000f02420004
:1017e00005f27e000004be00e00f5000e08f5800bc
:1017f000020032000d00e000efff3c004fcdde00a4
:101800008a057800089ebe000a96be0030003700a8
:10181000e00f5400e08f5c00e00f5d00e08f5d00a2
:1018200004003a005c0890008d0120000000e000f8
:10183000090032006172b900612bb9000800be00d6
:101840000a01be001c0107000fba9700644278002d
:10185000f4ef9f007d0120006172b900612bb90097
:101860000800be000a01be000c0107000d00370091
:101870006172b900612bb9000800be000a01be0008
:10188000110107008d06e90000f2b90004045400bc
:101890008fba970065427c0085fd2f008f82420041
:1018a00084f27e00009ebe000296be003c04be0094
:1018b0002c05be00e00f5400e08f5c00e00f5d00df
:1018c000e08f5d00020034000d00e000e8ff3c0006
:1018d000e80f570010003a000c1090000038a300e9
:1018e0000d003200f78f560006003e0085fd2f00e8
:1018f0008f824200e5c07e0000c3b30080cf50005d
:10190000050032008d06e90002c3b30081fd2f00ff
:101910008f80400082f07e0078811600120e9800c1
:101920006c00900083fd2f008f8141008d8041006d
:101930000dfd07001c089000dc089000810f50008e
:1019400006003d0000805000000e98000c10900032
:101950000040a100001698000f0037000100e000d1
:101960000d003d008c109000f4806000f08f50005e
:1019700009003a007c099000fc00900081005100b1
:101980000c09900082805000008050004240a90065
:1019900001003400000e98004f0778004f06be008b
:1019a0004f05be004f04be00cf01b100000006008d
:1019b000839f68000100e00002003d00600010000d
:1019c000e08018000300e00002003d00600111000b
:1019d000e0811900050007004f00e00002003b0015
:1019e00060001000e0801800000006006022b800cf
:1019f000060220000000d0008180d2000482d200c4
:101a00008582d2000000a0000202520083825a00a8
:101a1000030031000202420083824a000000a1005c
:101a20000603e900f3ff3a0000000600efff07009d
:101a30000400be0000000600889fbe008a9fbe0012
:101a400030044200b0844a0030054b0090854b00c2
:101a50006000b1000898be000a90be000440e1009a
:101a600005c8e10006d0e10007d8e100020031001e
:101a7000680040001008e8004f05be004f04be009b
:101a800000000600889fbe008a9fbe003004be0092
:101a90002005be000418540005985c0006185d007f
:101aa00007985d00110020000440e10005c8e10036
:101ab00006d0e10007d8e100010039008000eb000a
:101ac000108810004f05be004f04be000000060045
:101ad0001200fa00889fbe008a9fbe008c9fbe0045
:101ae000e0b79f00f1b79f0082bf9f0093bf9f00a8
:101af0000605be000404be000000eb00d0b79f0046
:101b0000c0b79f00b0b79f00a0b79f0090b79f00dd
:101b1000000678005fb19700cfb0970082014100c6
:101b20003fb097000200e00004003d0037000700ce
:101b30007e805700c0ff0700030037003300070016
:101b40007e805700cfff0700dfb697000d00e00052
:101b50000c0035006fb29700ffb297000fbb9700e3
:101b60009fbb970010002000010020006011b8000a
:101b7000000272008182720002037300838373008b
:101b80001b0007000c06e80001042000810f56002e
:101b9000e0ff3a000d00e00004003d000802be0036
:101ba0000a03be007e805700a3ff07005fa89700ce
:101bb0000000e00005003a001fb29700afb29700a6
:101bc0003fb39700cfb39700090007006fb09700ad
:101bd000ffb097000fb997009fb997004f06be005e
:101be0004f05be004f04be000080fa000000060052
:101bf0000100070000000600a4b79f00b5b79f00d2
:101c0000c6b79f00d7b79f00000006004f09de004f
:101c100082817100b3b79f004f01de0081804000d8
:101c200082807000a1b79f008fb097004f09de003f
:101c3000000040000200700090b79f007fa897004e
:101c40004f01de00818040008280700081b79f00dc
:101c50000d0007004f3ade00000040000400700055
:101c6000f0af9f00080007000402420085824a008e
:101c700006034b0087834b00dfff07000802be000e
:101c80000a03be00000006002fb29700bfb2970003
:101c90004fb39700dfb3970000000600881f78005d
:101ca00018002000881f780089ff07008f87e9004f
:101cb0004f04780000000600801feb0084ff07003f
:101cc0008f87e90000000600889fbe008a9fbe0043
:101cd000e00f5000e08f5800e00f5900e08f5900ee
:101ce0000c003d006044b8006055b800000054008e
:101cf00081805c0002015d0083815d00180020008e
:101d00001500070008003d00180007000004eb0064
:101d1000050037000004eb000f00070002003d0043
:101d20001200070018002000dcff07000800e00098
:101d3000060032006022b8006033b8000000520094
:101d400081805a0002015b0083815b004f05be0069
:101d50004f04be0000000600e00f5200e08f5a0062
:101d6000e00f5b00e08f5b00000006006044b800fd
:101d70006055b8000402540085825c0006035d00d3
:101d800087835d0000000600889fbe008a9fbe001a
:101d90008c1f7800e00f5000e08f5800e00f5900d2
:101da000e08f59000d003d006044b8006055b80058
:101db0000000540081805c0002015d0083815d00b1
:101dc0001c0020000820e10009a8e1000ab0e100a1
:101dd0000bb8e1000d003d00080037000006eb00e5
:101de000e00f5200e08f5a00e00f5b00e08f5b00d5
:101df00006003d006044b8006055b800040254007d
:101e000085825c0006035d0087835d00aaff0700f2
:101e10000c00e000060032006022b8006033b80019
:101e20000000520081805a0002015b0083815b0048
:101e30004f0678004f05be004f04be0000000600ac
:020000040000fa
:101e4000436f0000756e0000742000003d2000000c
:101e500025640000002000002044000065670000a9
:101e60002e200000432000003d20000025640000db
:041e7000000000006e
:020000040000fa
:101e74000200fa00000f7800000028002008880003
:101e84000021ef00000000001e0078004400dd0087
:101e94008000780000088000808f5000faff3e0028
:101ea4000080fa00000006000200fa00889fbe00cd
:101eb4008a1f7800000f780000032800200888009b
:101ec4000021ef0000000000000880008000eb000b
:101ed400f9f907000004be001e007800cf80de0080
:101ee400f2f9070002002000a3272400f4f90700f8
:101ef4001ac0b3000001be000800be00e9f90700e3
:101f04000000e000010035000045eb000a04e00099
:101f1400edff3a004f0578004f04be000080fa0040
:101f2400000006000000fa0020022000c011880012
:101f34008000280080118800004020009011880053
:101f4400dfa2a800e1a2a8000080fa0000000600b9
:101f54000200fa00004f7800000000000117800022
:101f640000002100008060000000e000fbff3a0058
:101f7400000000009111800000202000008060001b
:101f84000000e000fbff3a001e00fb00a0118800e7
:101f94001e4078000080fa00000006000000fa00ed
:101fa400e1a2a9000000000090118000610060001f
:101fb4000000e000fcff3200e1a2a800b0118000a4
:101fc400004078000080fa00000006000200fa00d9
:101fd400000f78001e007800201088000000000028
:101fe40040108000700060000000e000fcff3a0038
:101ff4000742a90007e2a8000080fa0000000600da
:102004000000fa00a000200099ff07000602a800c3
:102014000000000030108000610060000000e0005b
:10202400fcff3a00a000200091ff07000080fa00a6
:10203400000006000000fa00a00020008cff07004a
:102044000642a80000000000301080006400600018
:102054000000e000fcff3a00a000200084ff07001d
:102064000080fa00000006000200fa00004f780029
:102074000000000040108000610060000000e000eb
:10208400fcff3a001e00fb0010108800a000200096
:1020940077ff07000080fa00000006000000fa0045
:1020a4000662a8000000000040108000620060008a
:1020b4000000e000fcff32000682a800a00020001f
:1020c4006bff070000108000004078000080fa00d9
:1020d400000006003800fa0020010700c022ef00cb
:1020e400c222ef008fff0700d0092000b7ff0700ce
:1020f400a00020005eff07001000200010079800d9
:10210400bfff07004006200059ff070000c9b300c5
:10211400d5ff07004006200055ff07000040eb00f4
:10212400d1ff07004006200051ff0700c1ff070050
:10213400b3ff0700400620004dff070010c9b3009d
:10214400c9ff07004006200049ff0700d3ff07002e
:10215400404798004006200045ff0700cfff0700d6
:10216400504798004006200041ff0700b1ff0700d8
:102174004e4090000000fb00101688004e40900076
:102184008000fb00803e200000017800110009005f
:102194008200d800300798004e4090008000fb0079
:1021a400803e200000017800110009008200d80060
:1021b4008000fd00404798004e4090000001fb0065
:1021c400b04721000090b900c388de004f90de00c4
:1021d40000805000004078000000fb004007980099
:1021e4004e4090000000fb00b14721000181b9007e
:1021f4004399de00cf80de0001015100410620003a
:102204000191b90082007800010050004047980015
:102214004e4090000001fb00706626000090b9005b
:10222400c288de004f90de0000805000004078003d
:102234000000fb00500798004e4090000000fb0097
:10224400716626000181b9004299de00cf80de006c
:10225400810051006a09b900820078000100500031
:10226400004078000000fb006007980064ff07004e
:1022740040062000fefe070020ceb3007aff0700d0
:1022840040062000fafe070060c7b30076ff07008f
:1022940040062000f6fe07003e0090000040780053
:1022a40071ff070040062000f1fe07004e00900079
:1022b400004078006cff070040062000ecfe070099
:1022c4005e0090000040780067ff07004006200091
:1022d400e7fe07006e0090000040780062ff0700f0
:1022e40040062000e2fe070052ff0700700047008e
:1022f4009e009000811f780001f22800811f780061
:10230400d7f90700e4875700700798000000eb0036
:10231400000f780005003700700047001e004000e1
:10232400104078000aff07001e0fe8007e009000ae
:102334009e007800808f5000f7ff35004e409000db
:102344008000fb0070004700811f7800b1f2280074
:10235400811f7800c2f90700e487570070079800ce
:102364000000eb00000f7800050037007000470004
:102374001e00400010407800f5fe07001e0fe80024
:102384007e0090009e007800808f5000f7ff35009b
:10239400d0c0b300eefe0700a0c0b300ecfe0700ff
:1023a4001e0090000000e80010079800401f200065
:1023b400bdfe070052ff37000000fa00c422ef0000
:1023c400ca22ef00d022ef00d622ef00dc22ef0079
:1023d400e222ef00e822ef00f06f2c0000168800e4
:1023e4000080eb0030168800e001270060168800aa
:1023f4000080eb0090168800f03f2000c016880093
:10240400f01f2300f0168800f03c2f0020178800ee
:102414006820ef006a20ef00c026ef00c626ef0018
:10242400cc26ef00d226ef00d826ef00de26ef0000
:10243400e426ef00000c2000601988000080fa00f8
:04244400000006008e
:020000040000fa
:102448002408000020000000000000000008000030
:102458000200000002000000ffff00004408000026
:102468001a00000002000000686a6c00747a4c00d0
:102478000000010000020000040008000010000035
:10248800000020002b2d230030000000020800006f
:1024980022000000020000003031320033343500e1
:1024a8003637380039414200434445004600300081
:1024b8003132330034353600373839006162630011
:0c24c800646566000000000000000000d9
:020000040000fa
:1024d4000000fa0000102300203a88004827ef008b
:1024e4007027ef007227ef007427ef0032002000fe
:1024f40080072000a109200033742000804978005f
:1025040081497800824978000001eb0060042000d2
:1025140071052000237420008049780081497800e7
:10252400824978000080fa00000006000200fa00e8
:10253400000f78009e00780001408800ffff3700fc
:102544000000fa004082200080077800c083200049
:10255400000188000080fa00000006000000fa0074
:1025640095ff0700daff0700020007000080fa0069
:10257400000006000000fa000080fa0000000600d7
:020000040000fa
:020000040002f8
:04aff8009dfb0000bd
:020000040000fa
:020000040002f8
:04affc007f3f000093
:00000001FF
