:020000040000fa
:080000000002040000000000f2
:020000040000fa
:04000800520300009f
:020000040000fa
:04000c00d00200001e
:020000040000fa
:0400100012030000d7
:020000040000fa
:04001400f0020000f6
:020000040000fa
:0400180032030000af
:020000040000fa
:04001c00520300008b
:020000040000fa
:040020005203000087
:020000040000fa
:040024005203000083
:020000040000fa
:04002800520300007f
:020000040000fa
:04002c00520300007b
:020000040000fa
:040030005203000077
:020000040000fa
:040034005203000073
:020000040000fa
:04003800520300006f
:020000040000fa
:04003c00520300006b
:020000040000fa
:040040005203000067
:020000040000fa
:040044005203000063
:020000040000fa
:04004800520300005f
:020000040000fa
:04004c00520300005b
:020000040000fa
:040050005203000057
:020000040000fa
:040054005203000053
:020000040000fa
:04005800520300004f
:020000040000fa
:04005c00520300004b
:020000040000fa
:040060005203000047
:020000040000fa
:040064005203000043
:020000040000fa
:04006800520300003f
:020000040000fa
:04006c00520300003b
:020000040000fa
:040070005203000037
:020000040000fa
:040074005203000033
:020000040000fa
:04007800520300002f
:020000040000fa
:04007c00520300002b
:020000040000fa
:040080005203000027
:020000040000fa
:040084005203000023
:020000040000fa
:04008800520300001f
:020000040000fa
:04008c00520300001b
:020000040000fa
:040090005203000017
:020000040000fa
:040094005203000013
:020000040000fa
:04009800520300000f
:020000040000fa
:04009c00520300000b
:020000040000fa
:0400a0005203000007
:020000040000fa
:0400a4005203000003
:020000040000fa
:0400a80052030000ff
:020000040000fa
:0400ac0052030000fb
:020000040000fa
:0400b00052030000f7
:020000040000fa
:0400b40052030000f3
:020000040000fa
:0400b80052030000ef
:020000040000fa
:0400bc0052030000eb
:020000040000fa
:0400c00052030000e7
:020000040000fa
:0400c40052030000e3
:020000040000fa
:0400c80052030000df
:020000040000fa
:0400cc0052030000db
:020000040000fa
:0400d00052030000d7
:020000040000fa
:0400d40052030000d3
:020000040000fa
:0400d80052030000cf
:020000040000fa
:0400dc0052030000cb
:020000040000fa
:0400e00052030000c7
:020000040000fa
:0400e40052030000c3
:020000040000fa
:0400e80052030000bf
:020000040000fa
:0400ec0052030000bb
:020000040000fa
:0400f00052030000b7
:020000040000fa
:0400f40052030000b3
:020000040000fa
:0400f80052030000af
:020000040000fa
:0400fc0052030000ab
:020000040000fa
:0401000052030000a6
:020000040000fa
:0401040052030000a2
:020000040000fa
:04010800520300009e
:020000040000fa
:04010c00520300009a
:020000040000fa
:040110005203000096
:020000040000fa
:040114005203000092
:020000040000fa
:04011800520300008e
:020000040000fa
:04011c00520300008a
:020000040000fa
:040120005203000086
:020000040000fa
:040124005203000082
:020000040000fa
:04012800520300007e
:020000040000fa
:04012c00520300007a
:020000040000fa
:040130005203000076
:020000040000fa
:040134005203000072
:020000040000fa
:04020800520300009d
:020000040000fa
:04020c00d00200001c
:020000040000fa
:0402100012030000d5
:020000040000fa
:04021400f0020000f4
:020000040000fa
:0402180032030000ad
:020000040000fa
:04021c005203000089
:020000040000fa
:040220005203000085
:020000040000fa
:040224005203000081
:020000040000fa
:04022800520300007d
:020000040000fa
:04022c005203000079
:020000040000fa
:040230005203000075
:020000040000fa
:040234005203000071
:020000040000fa
:04023800520300006d
:020000040000fa
:04023c005203000069
:020000040000fa
:040240005203000065
:020000040000fa
:040244005203000061
:020000040000fa
:04024800520300005d
:020000040000fa
:04024c005203000059
:020000040000fa
:040250005203000055
:020000040000fa
:040254005203000051
:020000040000fa
:04025800520300004d
:020000040000fa
:04025c005203000049
:020000040000fa
:040260005203000045
:020000040000fa
:040264005203000041
:020000040000fa
:04026800520300003d
:020000040000fa
:04026c005203000039
:020000040000fa
:040270005203000035
:020000040000fa
:040274005203000031
:020000040000fa
:04027800520300002d
:020000040000fa
:04027c005203000029
:020000040000fa
:040280005203000025
:020000040000fa
:040284005203000021
:020000040000fa
:04028800520300001d
:020000040000fa
:04028c005203000019
:020000040000fa
:040290005203000015
:020000040000fa
:040294005203000011
:020000040000fa
:04029800520300000d
:020000040000fa
:04029c005203000009
:020000040000fa
:0402a0005203000005
:020000040000fa
:0402a4005203000001
:020000040000fa
:0402a80052030000fd
:020000040000fa
:0402ac0052030000f9
:020000040000fa
:0402b00052030000f5
:020000040000fa
:0402b40052030000f1
:020000040000fa
:0402b80052030000ed
:020000040000fa
:0402bc0052030000e9
:020000040000fa
:0402c00052030000e5
:020000040000fa
:0402c40052030000e1
:020000040000fa
:0402c80052030000dd
:020000040000fa
:0402cc0052030000d9
:020000040000fa
:0402d00052030000d5
:020000040000fa
:0402d40052030000d1
:020000040000fa
:0402d80052030000cd
:020000040000fa
:0402dc0052030000c9
:020000040000fa
:0402e00052030000c5
:020000040000fa
:0402e40052030000c1
:020000040000fa
:0402e80052030000bd
:020000040000fa
:0402ec0052030000b9
:020000040000fa
:0402f00052030000b5
:020000040000fa
:0402f40052030000b1
:020000040000fa
:0402f80052030000ad
:020000040000fa
:0402fc0052030000a9
:020000040000fa
:0403000052030000a4
:020000040000fa
:0403040052030000a0
:020000040000fa
:04030800520300009c
:020000040000fa
:04030c005203000098
:020000040000fa
:040310005203000094
:020000040000fa
:040314005203000090
:020000040000fa
:04031800520300008c
:020000040000fa
:04031c005203000088
:020000040000fa
:040320005203000084
:020000040000fa
:040324005203000080
:020000040000fa
:04032800520300007c
:020000040000fa
:04032c005203000078
:020000040000fa
:040330005203000074
:020000040000fa
:040334005203000070
:020000040000fa
:10040000cf8920000e7f22000e018800000000002e
:10041000000020000000e000020032000001200087
:100420002002880014000700a00007000000e00080
:1004300003003a00a0bc21000100200002003700a8
:100440000000200001002000810f70000100320038
:1004500014000700000020000000e000020032004d
:1004600000000200000000001e1b0200000000004f
:100470000040da000000fe004440a9008001200096
:100480000000e0000300320000002000a00188000e
:100490004440a800000006008a1f78008b1f7800e7
:1004a0000000060091018800800478000000eb0045
:1004b0001a003700e284440032a0b4009905ba0063
:1004c000e284440032a0b4009906ba00e2844400f9
:1004d00032a0b4000006eb00476fde00fd07b2005b
:1004e000636ce10003003a00ebff07000000eb0043
:1004f0000a003700606ce10004003a00005deb0088
:100500008b05e900fdff3e00040037006168e10053
:10051000010032000086eb000b00070019c7ba008b
:100520001905ba000e04e00003003a000a00e000da
:10053000e0ff3a0000000600fe07b2009e018800be
:100540008a047800f5ff3700395dba008b05e900b1
:100550000c003200295dba008b05e900080032006a
:100560000c00e00003003a00e284440032a0b40032
:10057000f5ff370019ddba008b05e900faff3a00f4
:100580008904e800e184440032a0b40000000600c1
:100590009c1a040000000000c80a040000000000cb
:1005a0003600f800809fbe00829fbe00849fbe0080
:1005b000869fbe000000fa008020a9000000eb002a
:1005c000ed0c07000080fa004f03be004f02be0092
:1005d0004f01be004f00be003600f900004006008b
:1005e0003600f800809fbe00829fbe00849fbe0040
:1005f000869fbe000000fa00e40c07008040a900be
:1006000010002000dc0c07000080fa004f03be0041
:100610004f02be004f01be004f00be003600f90081
:10062000004006003600f800809fbe00829fbe009a
:10063000849fbe00869fbe000000fa008060a90073
:1006400020002000cc0c07000080fa004f03be0001
:100650004f02be004f01be004f00be003600f90041
:10066000004006003600f800809fbe00829fbe005a
:10067000849fbe00869fbe000000fa008080a90013
:1006800030002000bc0c07000080fa004f03be00c1
:100690004f02be004f01be004f00be003600f90001
:1006a000004006000040da000000fe0000000500e7
:1006b00003f0a200889fbe008a9fbe008c1f7800b6
:1006c000d7000700de0033006450e1004f00320025
:1006d0006420e1005200320003826c0007003b00fe
:1006e0000905d0000306d000820f54000c065d00ff
:1006f0000200390002003200890178000306780008
:100700008582550004003d000003fd008103fd00cb
:100710008502ea008b854200840f720002003b00d4
:1007200060001000e08018006011b8000005eb00c8
:100730007a28e1000a00390006007800c75ddd0074
:10074000f707b200878075002d00370082817100a5
:100750000a017800610560008180d1000080d3002b
:100760008502e900f9ff3b00060440008784480049
:1007700002003b0060041400e0841c000988a30010
:10078000070032008a81710082817100610164007a
:100790008904d1000884d3008b05e80017003700d6
:1007a0000978a30013003a000b00e00013003400a6
:1007b0008b05e9000804440089844c000a44740055
:1007c0000978a3000d003a000b00e0000700340098
:1007d0008b05e9000804440089844c0001003a00bc
:1007e0000b0020000978a300f7ff32000001eb00a6
:1007f00002003700828171000a0178004d00070075
:100800000cf0a70001f0a000960037006420e10082
:1008100002003a00838f6c00960033000801be008e
:100820000200be008f003700140020008302370052
:100830000001be00650007000470a70003f0a100de
:100840006509b100160032000d0035006828e1008e
:1008500006003500f0ff2f00f1ff27000300e00045
:1008600013003b00010028000000050000004000cc
:10087000818048008502e900fcff3a00080037004b
:10088000f88f420002003c008000eb0000000500f1
:100890008100d1000080d3008502e800fcff3a000f
:1008a0000300e00002003b0060001000e080180040
:1008b000000006000001be00440007000470a7000d
:1008c00003f0a10003f8a30013003a006509b1008a
:1008d00010003200090035006928e10002003500ef
:1008e0000100280000000500000040008180480051
:1008f0008502e900fcff3a0000000600f88f420084
:10090000050035008100d1000080d3008502e80099
:10091000fcff3a00000006008000eb00000005002c
:100920004f89de0082017800610237006011b80053
:100930006f02370081002000618055000b003d00f0
:100940000b00200061fe2f000100e1001d003400bb
:1009500082817100610164008904d1000884d300a0
:100960000000e800faff3a00710020006100640016
:1009700003007000020060000900320061044400be
:10098000e0844c000988a500050032008b05e800d2
:100990006808e10002003a008904d1000884d3000d
:1009a000f20f20000258e10005003d00c75ddd00a8
:1009b000f907b20089807500080078000000060081
:1009c0000bf827008b00780000000500c70ade0046
:1009d000f107b200f50fb20008003200e1cf42008b
:1009e000020032000170a00024000500810f700099
:1009f000010032000408050044000500810f70006a
:100a000002003a00140005008502e90000004000e1
:100a100081c04800fcff3b000170a00024000500dd
:100a20000004be00e9ff07000003be000405be008d
:100a30000200be00e5ff0700844f750000000600bd
:100a40000200be006450e100050036006420e100b1
:100a5000020036000968a30001003a000800be0049
:100a60000160a0004f0678004f05be004f04be0095
:100a700000000600f0ff2f00f1ff2700f9ff37000c
:100a8000889fbe008a9fbe008c1f7800e4ff07008d
:100a9000ebff330003866c006450e1002400320059
:100aa0006420e100270032006150e10022003200a2
:100ab0006120e100210032008b854200eb07b1008c
:100ac0000134b800003ab8000804420089844a00a2
:100ad000013ab8000030b8008880400009014a009f
:100ae00004003300000040008180480002014900fa
:100af0008b05e900c909dd008301700001003200a7
:100b000013002000c814de004814dd004709de0091
:100b10001200b200c808de000884700085ff0700dc
:100b200001f0a1000cf0a70001f0a000cdff3700fc
:100b30006120e100cfff32000801be000200be00cc
:100b4000f7ff37006150e100fcff3a00c9ff3700b2
:100b50000c00fa00889fbe008a9fbe008c9fbe00da
:100b6000afff07000206be00840578000200be0049
:100b7000020020008a01070005003a008b02b30042
:100b8000120020008601070001003a00f8856d0080
:100b90000c01be00c60007000800be009b0032002a
:100ba0000b08a3009e003a000df0a7000be0a00088
:100bb00009f0a7000bf0a00009f0a1000801be0099
:100bc000bb0007000bf0a6009500320001003c00be
:100bd0000bd0a0008acf7500b20033006000b800cf
:100be0006250e10099003900a1003e000b28a300eb
:100bf000a2003a000bf8a300060032000b58a30035
:100c0000a70032000801be00a90007000800be00ce
:100c1000940032000800be00b00007000004be00cf
:100c2000050578000bf0a7000b30a6000bf0a10023
:100c30005b079800324f200053f32300fafe0700b1
:100c400005003d000800be0012002000d70107008b
:100c50000004be000a05e9004a0798006150b90087
:100c60002fff0700008fbe000c01be0084ff0700ad
:100c7000effe0700300798000100e00002003d0091
:100c800060001000e0801800f2ff2700820f500083
:100c9000e08f580064003e000c00be00e4fe070038
:100ca00020079800f2072000820f5000e08f5800c4
:100cb00005003c0012f82f00f3ff2f00820f5000b8
:100cc000838f580009003d000a00e0000300320055
:100cd00001003c000201ea00020578006000b80053
:100ce000200798003a079800190037003e0090004e
:100cf0006100b9000aff0700809fbe000c00be0023
:100d00004109dd004811de007208b100240107002e
:100d10000005be001e01be0059ff07004f01be00c6
:100d200063fe0700809fbe000c00be000a01be00eb
:100d30005ffe07001e01be0051ff07004f01be000d
:100d40005cfe07008221270013f323004cff0700fd
:100d50000005be002e0090006100b900f0fe070003
:100d600001f0a2000c01be0052fe07000006be000a
:100d70000800be00af0107000c01be0040ff0700e5
:100d80000a01be004bfe0700809fbe004a0007001c
:100d90002e0590000af0a7000a05ea0005003700ba
:100da0000800be000801be0035ff07000004be00b9
:100db0000c00be000801be000a00a70030ff0700bb
:100dc0000006be000a05d100f5ff3a005e01900062
:100dd00002e0a600030037000001be003600070055
:100de0004b0007000004be004f00be008a00070051
:100df0000801be0022ff07003e0190006b010700c2
:100e0000de0590000bf0a70001f0a2004f06be0027
:100e10004f05be004f04be000080fa00000006002f
:100e200025000700f9ff3700270007006000b80021
:100e30000bd0a7000bc0a0000be0a7000bc0a200c6
:100e40000bc0a70001f82700f0ff37000df8a30042
:100e5000020032001e000700190007000bf8a30073
:100e6000eaff32000b30a70001f0a200e7ff3700d5
:100e70000df8a300f9ff3a00f7ff37000801be00a4
:100e80000b000700e6ff320001003c000df0a2005d
:100e90006000b8000df0a70009000700dbff370075
:100ea0000b000700f1ff2700f0ff2f00d7ff3700ee
:100eb000010007005cfe370001f823000000050078
:100ec00001f8270000000500200220000100370083
:100ed0001002200030408800000006000003be0021
:100ee000bafe07006220e100020032000600be00e8
:100ef00005000500e507b100f107b20004f023008a
:100f00008480700007f0a70001f0a0002400050015
:100f1000889fbe008a9fbe008c1f7800c0fe07001d
:100f2000c7fe330003866c006450e1002e003200df
:100f30006420e100330032006150e1002f003200f4
:100f40006120e1003100320085855500eb07b000db
:100f500009002000080420000500370008044400b0
:100f600089844c000a0031000603430087834b004c
:100f70000001530081815b00f8ff33000203be00d3
:100f80000800a0000804440089844c00f6ff3900e2
:100f9000c639dd0083017300010032001300200018
:100fa0008904d1000884d3000998a3000500320009
:100fb0000800a7000300a0008904d1000884d30022
:100fc0008b05e8008904d1000884d3000001eb0000
:100fd0000281d20057fe070001f0a1000cf0a7002b
:100fe00001f0a0009ffe37006420e100a1fe320066
:100ff0000801be000200be00f7ff37006120e100db
:101000009cfe32006000b800f3ff370000002000b3
:1010100001f82700f0ff3700889fbe008a9fbe00be
:101020008c9fbe000004be0068fe07000800be00e2
:101030006420e10048003e00550032007221270084
:10104000132b24009800070047003c000800be0056
:10105000c2ec2800e32c2c00f3fd0700470035000c
:101060000800be0001f0a1000200200003382300a8
:10107000edfd0700430035000800be00b2a32a00c2
:1010800083fb23007efe07000200200003f0230004
:1010900001f0a70003f0a00086fd0700e4fd0700b3
:1010a0000005be001efe070001f0a2000006be0003
:1010b0000200280013f3230071fe07000801be00a0
:1010c0007cfd0700809fbe000c00be003208280097
:1010d000e3952b006afe07004f01be0075fd070077
:1010e0000006be000001be0065fe0700809fbe0036
:1010f0004241250083b8230061fe07000200200062
:1011000003e823006bfd07000c01be005cfe070036
:101110000006be004f00be00f2f92b00c3d423002e
:1011200057fe07000200200003f0230061fd0700c6
:101130000c01be005efd07000001be000c00be00f9
:1011400073ff07000200200003f0230059fd070091
:1011500061014500950007004f06be004f05be0027
:101160004f04be000000060001f827000000200028
:101170002202200032408800f7ff37006000b800ec
:10118000fbff370001f8230000002000f2ff3700ca
:1011900009f8a300f0ff32006000b800eeff37004e
:1011a000889fbe008a9fbe000003be0007fe0700a6
:1011b0008505780082815200020020006220e10053
:1011c00004003a00f307b100040035007718e1008d
:1011d000040035000600be00140037006000b800af
:1011e0000f003700f50f2000faff2f008502d10015
:1011f0000a85d3008301e900fcff3b008184620083
:1012000000046500890f7400f2ff32008582ea0055
:101210000a85ea008184620000046500c5fd0700bc
:1012200007f0a70001f0a0000081eb000200e00041
:101230004f05be004f04be0000000600889fbe00a0
:101240008a9fbe00841f7800f5fd07004f007800dc
:1012500011003300f0ff2f00838f6c0006003b006d
:10126000040565000a00a7000800370009f0a60081
:101270001000200008003700820f5400838f5c00ac
:10128000030039001000200001003e000000200093
:1012900009f0a7000000ea004f05be004f04be00a1
:1012a0000000e00000000600f4ff2f00e3ff37001d
:1012b000881f7800030478000300e00007003d0069
:1012c00060001000e080180060011900e081190042
:1012d00002003b0001f02d0003003700040007006e
:1012e00008f0a70001f0a0004f04780000000600fd
:1012f000889fbe008a9fbe000082700004027100b9
:1013000004827100260032000004be000200be000c
:101310006011b8006b092000950220000182cf0007
:101320000a0039000541b1000082cf0007003900f2
:101330000541b1000982cf00040039000541b10028
:101340000882cf00010039000541b100054252007a
:10135000120032000a003b008281710061016400ca
:101360008100d1000080d3008984d3000884d30099
:101370008b05e8000442e800f7ff3a000700370059
:101380000804440089844c00000048008180480023
:101390008b05e9000442e900f9ff3a0065fd07000a
:1013a0004f05be004f04be00000006000003be0053
:1013b00086fd07006220e100020032000600be0048
:1013c0000000060085024100e30f20000328e10031
:1013d00005003c00a3fe2f000328e10007003d00ac
:1013e0000500200001003700f50f2000200220003a
:1013f000304088006000b80008003700130020006b
:101400008381520005003d008100d1000080d3009f
:101410008301e800fcff3a0005002000c72add0038
:10142000f107b2008580700007f0a70001f0a0006e
:1014300000000600889fbe008a9fbe008c9fbe00f1
:10144000a6fe0700850478000005be006420e100c8
:1014500049003e006220e10003003200090035002f
:101460000bf8a300440032000bf8a3000800320080
:101470001002200030408800f0ff2f00f1ff27000d
:101480003d00370001f82f00000020003a0037002f
:101490003d00070086fc07000006be000a00be00f3
:1014a000324f200053f323007fff07000600340073
:1014b0000c00be00340007007dfc07000006be00e3
:1014c0000a00be00020037008904e9000c00be00db
:1014d0002d0007006afd07002b00070075fc0700c0
:1014e0000001be000c00be0089fe07000005be0022
:1014f0000001be0062fd07000006be00a2f323004b
:10150000430d2c006bfc0700809fbe000c00be004a
:10151000d2e32700d3f02b0059fd07004f01be0096
:101520007bfe07000006be000a01be0054fd070056
:101530000a01be005ffc07000006be006148b9005a
:10154000f7fc07000005be0032082800e3952b00d9
:101550004bfd07000c01be0056fc07000006be0054
:101560000a00be000200280013f3230044fd070018
:101570000c01be004ffc07004f06be004f05be0029
:101580004f04be000000060003f023000200050027
:10159000881f78000204780008017800c400070062
:1015a000080040004f047800000006000000fa0028
:1015b000881f780000047800ea8157003fb997003f
:1015c0008800780080ac2000070007000000e000e1
:1015d000020035008040eb00017478004f04780071
:1015e0000080fa00000006006200fa00889fbe003a
:1015f0008a1f7800000578008104780002047800d2
:101600008300780080f92f000f0040007701070069
:101610009a979f00a9979f000000eb00b09f9f0042
:101620001885fb008a04fb000a05ea004f55de001e
:1016300050022000808f54000d003200e10f550051
:101640000b003a000a017800880078002f9097007c
:101650009f91970003000100a0979f000000e00009
:101660008e0032003f9897000000e800b09f9f0076
:101670000a04440050022000808f5400040032000d
:101680000900e000e6ff3a003f9897008400370029
:101690000000eb00909f9f00809f9f00f0979f00ad
:1016a000e0979f00d0979f00c0979f0007003700ea
:1016b0004189200001005000000040008188200086
:1016c00061007800df98970001007000d09f9f00b4
:1016d0008804780009047800384578008a00fb0007
:1016e00040892000790007000000e000f0ff3a0088
:1016f000a1c2b300814f55000e003a00cf88970079
:101700000180e900c08f9f0010007800c09f9f00fb
:101710000000e00005003d000000ea00c09f9f00bf
:101720005f9897000020a000d09f9f000904e80068
:101730000f003700c09f9f000000eb00050037003e
:10174000f2ff2700820f5000020032006a01b90048
:10175000028040000904780088047800b900fb008a
:101760000103b100e98f5000f5ff3600c09f9f00d4
:10177000e0c2b300984f1000020032000080eb007e
:1017800019003700a0c2b300d84f100007003a007c
:10179000cf8897000180e900c08f9f00100078007b
:1017a000a09f9f000804e800100037000000eb0035
:1017b000a09f9f008800780005003700f3ff2700f6
:1017c000830f5000020032006a02b9000400410099
:1017d00001047800880078003101fb000203b100a9
:1017e000e90f5100f5ff3600a09f9f009844780054
:1017f0008900fb0000882000340007000000e000a2
:10180000020032000804e800010037008044eb00c9
:10181000c97f9f0080c6b30080cf540004003a0007
:1018200098cf14000a003a006640500006003700c6
:10183000c0c6b30080cf540005003a0098cf140012
:1018400003003a0065404000c07f9f000804e800a4
:101850001801fb00e3fb2f008f81410081f92f006d
:101860008f804000a0f92f000f004000e10007002a
:101870000000e00009003a00e1fb2f008f804000eb
:10188000a0f92f000f0040001c0007000000e0003e
:10189000020035000804e80061ff37000080eb001b
:1018a0004f0578004f04be000080fa0000000600db
:1018b0008001780002003700b15978000201e90088
:1018c0000200e000fcff3a000000060002003700c2
:1018d0000304e000060032000001780002007800f6
:1018e000b041780081cf5100f9ff3a000100370084
:1018f0000001eb0002007800000006000400fa007e
:10190000889fbe008a9fbe008c1f7800000478006c
:1019100001067800f80d9000780090008085550051
:1019200008089000808555001808900080855500b3
:101930002808900080855500380890008085550063
:1019400048089000808555000002220090bf9f004b
:1019500000032300a0bf9f00081090000028a300f0
:1019600015003a000b00e000130034000b0578006e
:101970008a047800e20f550001003600290020009b
:10198000c801900009017800ee80570058009000cf
:1019900003000100500498000000e0008c003200b9
:1019a0006808900009004000600c98000905550087
:1019b0004240a900eeff3c00780190000200e000e8
:1019c0000c003400c80190008c0078005800900092
:1019d00003000100500498008080eb000000e0004c
:1019e0007c003200e8089000780090000080400001
:1019f000600c9800880c90000900e0001100340091
:101a000009057800e28f5400010036002a0020000a
:101a1000c80190000a017800ec805700580090003f
:101a200003000100500498000000e000680032004c
:101a3000680890000a004000600c98008a845400f6
:101a4000edff3700180990000200e0000c003400a0
:101a5000c8019000e80090005800900003000100c9
:101a6000500498008080eb000000e0005900320034
:101a7000e80890001808900000804000600c980072
:101a8000a80c90000900e00011003400090578005e
:101a9000e28f5400010036002a002000c8019000a7
:101aa0000a017800ec805700580090000300010004
:101ab000500498000000e0004500320068089000e3
:101ac0000a004000600c98008a845400edff370043
:101ad000380990000200e0000e003400e800900099
:101ae0001808900080804000c801900058009000c5
:101af00003000100500498008080eb000000e0002b
:101b000034003200e808900038089000008040005f
:101b1000600c9800c80c90000900e000110034002f
:101b200009057800e28f5400010036002a002000e9
:101b3000c80190000a017800ec805700580090001e
:101b400003000100500498000000e0002000320073
:101b5000680890000a004000600c98008a845400d5
:101b6000edff3700081090008000eb000028a30074
:101b7000180032000b00e000160034008b047800df
:101b800009057800e28f5400010036002a00200089
:101b9000c80190000a017800ee80570058009000bc
:101ba00003000100500498000000e000080032002b
:101bb000680890000a004000600c98008a84540075
:101bc0004240a900eeff3c008000eb00010037001e
:101bd0008080eb00010078004f0678004f05be00c2
:101be0004f04be000080fa000000060001087800e3
:101bf00000000600889fbe008a1f7800000478005d
:101c0000824478000305780070c4b30080cf54008c
:101c10000a003c0000c0e90080cf54000f003d00e6
:101c200050c2b30080cf5400350032007c404000e9
:101c300080cf540035003a000800370010c6b300ca
:101c400080cf54000500320030003500b0c9b30029
:101c500000c04400e24f50002c003e00286190007c
:101c6000c0c4b300804f510006003a001101780053
:101c700068005100800878005001be004000be009e
:101c800005003700110178006400510080087800d9
:101c90001000be00a3030700009cbe000294be001b
:101ca000b8009000780090000100e00002003d00c4
:101cb000d1c2b30008003700881090000118a300bb
:101cc00002003200b1c2b300030037000108a300d4
:101cd0000400320001c2b300017578000000e80082
:101ce0007004980078009000000545006a04980090
:101cf0008900fb0008007800100007000b00370087
:101d00007800900009757800060037007800900090
:101d1000000545000904e00001003a0059c2b30083
:101d2000094d78000000e800700498000000eb0006
:101d30004f0578004f04be00000006002f04b000dd
:101d4000889fbe008a9fbe008c9fbe008e1f7800b9
:101d50000007780081f79f003e04be002e05be00fc
:101d60005e0890000000e00002003d0060002000de
:101d7000500f98008e00780020fb2f000f004000cd
:101d80003a020700e20f50000a003a00300020003b
:101d9000100f9800b1c9b3000ff0970081404000c8
:101da000c0802000e1cf50000d003e008080200068
:101db0000b0037000000e0000f003400300020006e
:101dc000100f9800b1c9b3000ff197008140410096
:101dd00040812000e1cf500001003e000081200042
:101de000ee009000b0487800b068780010407800ad
:101df00090409800f30037000000e00005003a0032
:101e000022fb2f000f014100001978008001eb0038
:101e1000e70037006022b8006033b8000800be0059
:101e20000a01be00870207000000e00001003d003b
:101e30000bf0a200705927009f9897000088b90006
:101e4000026a280013002000e20207006406500026
:101e50009c9f9f0013003b0063061600c0ff2f00ed
:101e6000000666008c01ea00939f9f008d81200090
:101e70000800be000a01be00070037000c08a300de
:101e8000030032003d02be002d03be0074030700b4
:101e90000c86d100e88646000c00e000f7ff3c000d
:101ea000180037000c00e00018003200c0ff2f00bf
:101eb000000666009c9f9f008d8120006000b80096
:101ec0000200200003ff2300070037000c08a300d6
:101ed000030032003d02be002d03be006003070078
:101ee0000c86d100e88646000c00e000f7ff3c00bd
:101ef0000002be000203be000800be000a01be00d0
:101f00005a0207000004be000205be00de08900071
:101f100060c6b3000ff29700804f520004003200f9
:101f20006000200062c4b300824f520002003a00f9
:101f30009f9a97006a80420081004000f1b79f009d
:101f400001037800f30f5300020034003701200032
:101f5000f7b79f0000c3b300c0779f0056fb2f0068
:101f60000f0343000e007800a0b79f00060778001b
:101f70003d0037000800be000a01be00080307004c
:101f80000006be007fb1970068015100f2b79f00c4
:101f90004240a9000c0034002d0307000002be00df
:101fa0000203be000800be000a01be00a203070033
:101fb0006022b80046782d00771924002803070016
:101fc0000004be000205be00e80047008e002000ad
:101fd0000802be000a03be00b4b79f00c5b79f0049
:101fe000d6b79f00e7b79f000c01be000104780040
:101ff0000c003700a400200005002000c0fd2f00c9
:102000000f004000840107006fa89700ffa8970009
:102010000fb197009fb1970005c3b300056441005d
:102020000001be00e00f5100e08f590003003400b2
:102030000e07e900e10f4700eeff3a008800780044
:102040003fb49700cfb497005fb59700efb5970006
:102050000200370000c3b300806078000e07e9007b
:10206000fcff3b00688740007fb397000600e0005c
:10207000070034006022b8006033b8000800be00da
:102080000a01be00f40107000000e000b9ff3c00b7
:102090000e0378002fb7970051fb2f008f80400070
:1020a000010353009f9b970067804300909f9f0010
:1020b000020037000603e9000000e9000101780092
:1020c0008200780003c3b300b1cf1100f9ff3200e2
:1020d000909f9f00de09900061c6b3000ff2970049
:1020e000814f52000300320061c4b300814f52009f
:1020f00002003a000000e8000a003700100020004b
:1021000051c6b3008ff2970081cf52000500320014
:102110000540780050c4b2000080fb000000e900d8
:102120004f00de0083014000868f51000100340023
:10213000860178000300e0001d00350000c3b300f5
:10214000868f510006003d0062c279006940400060
:1021500041c3b300814f520001003c006940500070
:102160008300e9008100410001003700840178000c
:102170000302e90001037800a142780080cf5200f9
:10218000faff320091c3b300814f500001003a00c2
:10219000054be8000400e00005003d000201e900f5
:1021a0008301e8001f9b97000603e800969f9f00ad
:1021b0008ff397008700fb001f9a97000e007800ae
:1021c000060007004f0778004f06be004f05be000f
:1021d0004f04be002f04b10000000600f087470046
:1021e000889fbe008a9fbe008c9fbe008e1f780015
:1021f00000047800814478000205be0004067800df
:102200000b00e00002003c001b002000aa89200017
:1022100060c6b30080cf54000e00320060c4b3002b
:1022200080cf54000b00320070c6b30080cf540042
:102230000300320070c4b30080cf540081003a0024
:10224000e40f46007f00350058089000800f5600cc
:102250007c003d000c06e80060c6b30080cf54004f
:102260001000320060c4b30080cf54000d00320073
:10227000081090000038a30004003a0058089000ad
:10228000808f550001003d005b0c980058089000bd
:102290000c005000500c980002003b000000eb00c6
:1022a000500c980018089000e80090000c00e00026
:1022b00026003c0002c3b300827078000000e800f2
:1022c000100c9800d80890000100e00003003c00ca
:1022d000881090000138a30005003200e80090004b
:1022e000e2c2b300827078000000e800100c980091
:1022f000580890008c00ea00810f500001003d005a
:102300000006ea008c00ea00210c98000006460056
:102310005c0c98008b0f5600010034000b0678000f
:102320003c0c9800e80090001808900000804000e5
:102330000c0178008a0078005dfd070058089000c5
:102340000c0650004c0c9800900037008c8f550004
:1023500018003d00008040000b0178008a007800e2
:1023600053fd07001808900000804500100c9800ed
:102370008b0556002b0c9800d80890000100e00057
:1023800003003c00881090000138a30006003200d2
:10239000e8009000e2c2b300827078003808900034
:1023a0000000e800300c980058089000400c98009d
:1023b00076003700008040000c0178008a00780029
:1023c0003bfd07001808900000004600100c980024
:1023d0008c855500d80890000100e00003003c0007
:1023e000881090000138a30005003200e80090003a
:1023f000e2c2b300827078000000e800100c980080
:1024000058089000808f5500010034008005780046
:10241000e800900018089000008040008c00450003
:102420000b01780022fd0700180890000b00400007
:10243000100c9800580890008b0550002b0c980049
:102440005200370018089000e80090009a70780059
:102450000000e800100c9800d80890000100e0008f
:1024600003003c00881090000138a30005003200f2
:10247000e8009000e2c2b300827078000000e8003b
:10248000100c9800580890000000e0001000340084
:102490008b05e900808f550001003400800578002d
:1024a000e800900018089000008040008a00e800d2
:1024b0000b017800fefc0700180890000b0040009c
:1024c000100c9800580890008b0550002b0c9800b9
:1024d000e80090001808900000804000095878003b
:1024e0000007e8000c00e00004003500b1c2b300b2
:1024f000014878008e04780004003700d1c2b30090
:10250000014878008e0478000c06ea007d855700ab
:102510008006eb0009003700a20020008c00780044
:1025200072805700310007007fb097008fb8970086
:10253000016d7800000678008d06e8000c00e000d0
:10254000f5ff3c000d00e00009003a008e04780021
:1025500000c3b300805c7800050037008d06e900f9
:10256000fc80570061c07e0002c3b300825c400063
:102570000d00e000f9ff3c00e80090001808900012
:102580000080400080845400390c980008109000ae
:1025900074006000f00f50000e003a0098089000a0
:1025a0007800900000804000a808900001004000e2
:1025b000b808900001004000c808900001004000e9
:1025c000f8089000810f500002003d00008050008c
:1025d000000c98004f0778004f06be004f05be0064
:1025e0004f04be000f01b100000006008002780019
:1025f00001037800110009000203d800800178006f
:10260000830a78000299b9000201530092029800ef
:102610000500780000000600881f78008a9fbe0031
:102620008c9fbe00000478000205be000406be00b8
:102630000401be000a00be00e6000700008cbe00d8
:102640000c01be000e0207000005550081855d00eb
:102650002a0498003b049800080078004f06be004a
:102660004f05be004f04780000000600889fbe00a2
:1026700000047800e68440001900d0004500de0028
:10268000f27f2000820f500010003a00000ceb0097
:10269000990478006f816400200020001b003a003c
:1026a000210190000200e00018003a0011019000a2
:1026b0000200e00015003a00100020001100e000c8
:1026c0001200320020002000100037000000e0005f
:1026d00004003a00010078000e0007000000e0004e
:1026e00008003c00f20028001901610001fe2300ef
:1026f000810c710021c02f00010c40000080eb0014
:1027000002003700000ceb000000eb004f04be009d
:1027100000000600e60040001101780005002800d6
:10272000850261006f0161008208780002003200ba
:102730001200200011003700a001900012002000bc
:102740000300e0000d003a00900190000300e0005b
:102750000a003a001000e00008003a003600370096
:10276000640340009608780080017800530b7800dd
:102770009009780004087800700151001102780077
:102780000400e000f6ff320013003700640240004e
:10279000140378004f33de00838141008308730007
:1027a00080017800d3037800cf3bde00140378006b
:1027b00006034300068a73001302780004024200f5
:1027c000100378004f33de00860972009001780014
:1027d000038841000201e90091017800ef8f510068
:1027e000eaff3600100037008001780053037800bc
:1027f0004f33dd001002d100040873006402400072
:1028000094037800cf3bdd001303d1008689730069
:10281000110378004f33dd009401d100030a7300e7
:102820009108d1000201e80091017800ff8f51006a
:10283000edff3e00ef886100918872000200780091
:10284000000006008f1fd100110207008f87e900ea
:102850000000e00000000600809feb000c02070073
:102860008f87e9000000e000000006002800fa0061
:10287000889fbe008a9fbe008c9fbe0003866b00af
:102880008f0007006400e100440032006408e100aa
:102890004a0032006100e100460032006108e100b8
:1028a00049003200ec0647006000b8003d02be005f
:1028b0003d03be00f48657006011b8003d04be0021
:1028c0003d05be007d0320000b0037000000a00086
:1028d0008d06e900130032000402420085824a009e
:1028e00006034b0087834b000000400081804800b6
:1028f00002014900838149000802520089825a007e
:102900000a035b008b835b00f0ff3b000802420080
:1029100089824a000a034b008b834b008d06e90035
:10292000edff3a008482720086827200f707b200df
:102930008782720001003200150020001e04900002
:102940003e0b900006035400e63fb0000368a3006e
:10295000070032000000a7000500a0008301d1009d
:102960000281d3008180d3000080d3000603e800f9
:102970008301d1000281d3008180d3000080d30085
:102980000002eb000482d2002100070003f0a10046
:102990000cf0a70003f0a0005d00370064024700c0
:1029a0006408e100570032003400be003401be006c
:1029b000f6ff37006108e100520032006011b800f4
:1029c0006000b800f1ff370003ff2700020020007d
:1029d000fbff3700839f68000100e00002003d001c
:1029e00060001000e08018000300e00002003d00dd
:1029f00060011100e0811900110107004f00e000a3
:102a000002003b0060001000e0801800000006009b
:102a10001800200057002000080453000d003d005e
:102a20000600200097fc2f000740e1001e00340044
:102a300084827200610260008301d1000281d300b0
:102a40008180d3000080d3000804e800f8ff3a003a
:102a50004700200061046000050474000404640061
:102a60000d00320061004000e08048006001490034
:102a7000e081490003b8a500070032000603e80022
:102a80006538e10004003a008301d1000281d300df
:102a90008180d3000080d300f87f20000830e1005f
:102aa00003003500080378006000b8006011b8002a
:102ab0004433dd00f300b200830173000000060020
:102ac000680447000294be000094be00fc04470066
:102ad0008694be008494be0009007800b50107000a
:102ae00008007800b301070099007800814f70005a
:102af0000b003b000800be008e0107004f00b10034
:102b000003003700f3ff2700f2ff2f006110b90028
:102b10004f06be004f05be004f04be000080fa0005
:102b20000000060081037800a8f707000001be003e
:102b30006000b8000478a30013003a006220e100ae
:102b400015003e000d0039008301d1000281d30041
:102b50008180d3008301d1000281d3008180d30022
:102b60008301d1000281d3008180d3000538b000f9
:102b7000c42add00f300b2008381720007f0a700d1
:102b800003f0a00000000600f3ff2700f2ff2f0073
:102b90006110b900fbff370003ff2700f7ff370084
:102ba0001400fa00889fbe008a9fbe008c9fbe0062
:102bb0000004be000205be00680047000a90be0087
:102bc0000890be007b0107000070a7000bf0a10079
:102bd000304320009e02900080825200b0fe2f0001
:102be0000028e10011003d00b0fc2f000028e100aa
:102bf000150034001e0990008e0890007e009000a1
:102c00000501b0000201d1008180d3000080d30013
:102c10008502e800fbff3a000b00e000bcff3b0030
:102c200060001000e0801800b9ff3700f0ff2f00af
:102c3000f1ff27000b00e000b5ff3b00010028007a
:102c400000002000b2ff37006000b800b0ff37007e
:102c50004f89de00820178007d013700000000000e
:102c60002800fa00889fbe008a9fbe008c9fbe008d
:102c700003866b0092ff07000028a30064003a005f
:102c80000128a30067003a000008a30062003a0090
:102c90000108a30065003a001e009000be089000e5
:102ca00081064000ed3fb100f4805700ee01900036
:102cb000111ab8008e099000311bb8009e099000cf
:102cc000311cb800511db800f485570046000700bc
:102cd000fe0190003a0007008b85e8003e000700e7
:102ce0008e09900040000700ee01900034000700bc
:102cf0008b85e800380007008e099000400007002f
:102d00009e0990001b18b800890440000a854800fd
:102d1000fe019000340007008b85e80038000700b2
:102d2000ee019000300007008e0990001b18b800db
:102d3000890440000a8548000a98a30008003a0068
:102d40000402420085824a0006034b0087834b0041
:102d500008044c0089844c000a054d008d06e900ea
:102d600084827200850273004c3add008502720095
:102d70000100320015002000443ade001400b200c9
:102d80004538de00cb45dd000b007000c540de009d
:102d9000cb4ddd008b8070004549de00cb55dd005a
:102da0000b017100c551de000d03780018ff07000c
:102db00003f0a1000cf0a70003f0a00054ff3700bf
:102dc0001b18b8008502400006834800e0834b00d2
:102dd00060044c00070037001b18b80006034000d1
:102de00087834800faff37001b18b80087034000ac
:102df00008844800e0844c0060054d000000060097
:102e00001b18b8000804400089844800faff370006
:102e10000108a3003bff3a005800be005801be0065
:102e2000e3ff37000008a30036ff3a0009047800ea
:102e3000f9ff37000000000007f0a200160037007d
:102e40006022b800060220000000d0008180d2007d
:102e50000482d2008582d2000000a000020252004b
:102e600083825a00030031000202420083824a003a
:102e70000000a1000603e900f3ff3a00000006008d
:102e8000020ab900001bb9000200b800810042002c
:102e900081004300000006002800fa00889fbe0061
:102ea0008a9fbe008c9fbe00070678008786690057
:102eb0000c003b00030478008704780008f0a100b0
:102ec00009f0a100840f5000858f5800860f59002b
:102ed000890f5c00030033000cf0a20001003a00ef
:102ee0000cf0a100f6fe07006400e1005f00320074
:102ef000780147006408e100610032006c0147007e
:102f0000748557003200be001201be003a04be00b4
:102f10001a05be001e039000be0a900085035300f0
:102f200006003d000004fd008104fd000205fd00d7
:102f30008305fd008703ea00050378000df8a30070
:102f40000400320060041400e0841c0060051d00d1
:102f5000e0851d006022b8007d0320000d38e100ef
:102f60008006eb000b0039004433dd00f300b200b3
:102f70008301730039003700848272000d027800eb
:102f8000e10664008b85d1000a85d3008984d300d3
:102f90000884d3008703e900f7ff3b0008004000e6
:102fa000898048000a0149008b81490004003b00e8
:102fb00060001000e080180060011900e081190035
:102fc0000358a300090032008d82720084827200cf
:102fd000610260008301d1000281d3008180d300af
:102fe0000080d3000603e8001b0037000348a3005d
:102ff00017003a000600e000170034000603e9005d
:103000000d00a30000004800818048000201490033
:10301000838149000348a3000f003a000600e00046
:10302000090034000603e9000000400081804800e8
:10303000020149008381490001003a000003eb00ce
:103040000348a300f5ff32006022b80002003700f9
:1030500084827200618266006dfe070003f0a100a9
:103060000cf0a70003f0a000a9fe370064014700a0
:103070006408e10002003a000df8a300a1fe3a0046
:103080003200be001201be00a1fe370000000000a9
:10309000889fbe008a9fbe008c9fbe000404be00b5
:1030a0000605be00809fbe00829fbe002f00070065
:1030b000040678000800be000a01be002b000700cd
:1030c000840678004f03be004f02be008d4f76008d
:1030d0007fb0970013003300f0ff2f008b8f6b0041
:1030e00006003b000d0666000c00a7000a00370032
:1030f00007f0a600100020000a003700880f5200d9
:10310000898f5a008a0f5b008b8f5b0003003900a8
:103110001000200001003e000000200007f0a70082
:103120000000ea004f06be004f05be004f04be007f
:1031300000000600e48240001078a300070032007f
:10314000640240001178a3003400be001401be00e8
:10315000040032000330a700000006003500be0066
:103160001501be000330a0000000060005ff270087
:1031700005826100070032000428e10001003200ee
:10318000240005000600070001003a004400050085
:103190000408050002000700f9ff3a0014000500ca
:1031a0006f826100810270008502710085027200e9
:1031b00000000600800078005002be005003be00f0
:1031c0004439de00f700b200f37f20000301610004
:1031d000090032000218e10016003a008501720071
:1031e00083017300838173000008200015003a00fa
:1031f0004000200013003700850172008301730036
:103200008381730005003a0004a8be0006a8be0032
:10321000100020000b0037000201e9000402420008
:1032200085824a0006034b0087834b000748a300b2
:10323000f9ff32000740a00004a8be0006a8be00a7
:1032400020002000800098009200980000000600f6
:10325000881f7800030478000300e00007003d00a9
:1032600060001000e080180060011900e081190082
:1032700002003b0001f02d000300370004000700ae
:1032800008f0a70003f0a0004f047800000006003b
:10329000889fbe00008270000402710004827100e9
:1032a0002400320036432000c50020008383cf0075
:1032b0000a0039000541b1008283cf0007003900c0
:1032c0000541b1008183cf00040039000541b10000
:1032d0008083cf00010039000541b10085c3530050
:1032e0006022b800120032000a003b0084827200a3
:1032f000610260008301d1000281d3008180d3008c
:103300000080d3000603e8008743e800f7ff3a0097
:10331000070037000000400081804800020149009a
:10332000838149000603e9008743e900f9ff3a0079
:0c333000b7fd07004f04be0000000600bf
:020000040000fa
:10333c00253000002e3400006600000054650000ab
:10334c006d70000065720000617400007572000001
:10335c006520000069730000203a00002000000086
:020000040000fa
:10336c000200fa00000f78001e0078006019880037
:10337c00000e2000001988002223ef0010f021001d
:10338c00201988003023ef0021e3a8000080fa0008
:10339c00000006000200fa00000f78001e00780002
:1033ac00401988002023a8000000000000198000ac
:1033bc00610060000000e000fcff32002003a90067
:1033cc00001880000080fa00000006000200fa00dd
:1033dc00889fbe008a1f7800000f78000003280029
:1033ec00800888000621ef000000000030088000f3
:1033fc008000eb004af507000004be001e007800b8
:10340c00cf80de0043f5070002002000a327240034
:10341c0098f507001ac0b3000001be000800be00fa
:10342c00fef407000000e000010035000045eb0051
:10343c000a04e000edff3a004f0578004f04be008f
:10344c000080fa00000006000400fa001007980043
:10345c000000000011308000000028000080600097
:10346c000000e000fbff3a001e00900020308800b6
:10347c0040308000000f7800000000001130800008
:10348c0000002800008060000000e000fbff3a0014
:10349c0040308000004078000080fa0000000600f8
:1034ac000400fa00100798001e009000e10f500075
:1034bc0005003a00c2a92100010820000000eb0021
:1034cc0002000100170037001e009000e20f5000b0
:1034dc0005003a00c2a92100010c20000000eb00fd
:1034ec00020001000f003700c022ef001000200086
:1034fc00000f780008003700f00f2000101688002d
:10350c0040062000b1ff0700c222ef004006200059
:10351c00aeff07001e0fe8001e007800f30f5000ee
:10352c00f5ff34000080fa00000006000400fa00e9
:10353c00000f780021479800000000000000eb000d
:10354c00c1ff07000004e000fcff35000000000094
:10355c001130800000002800008060000000e000b6
:10356c00fbff3a001e007800203088002e409000af
:10357c000000fb00403088000080fa0000000600cc
:10358c000200fa00000f7800060037001e007800d9
:10359c00104078001e0fe8008040780010002000da
:1035ac00e2ff07001e007800104078000004e000e5
:1035bc00f6ff3a000080fa00000006000000fa0056
:1035cc003030280000308800f03f20001030880098
:1035dc0010002000603088000080fa000000060017
:1035ec000000fa000426ef00800320004030880021
:1035fc001000200075ff0700f0002000403088000c
:10360c001000200071ff07001000200040308800df
:10361c00200020006dff0700600020004030880073
:10362c002000200069ff07000080fa00000006005f
:10363c001800fa00d9000700e0ff0700e8ff0700b8
:10364c0040002000100798003033230031b52300d0
:10365c002007980031079800f0fe2f0040ff07006c
:10366c0000f02f00001688000028ef000000eb008f
:10367c00000f7800080037004000200045ff0700cd
:10368c00014080000100400000408800d00720006d
:10369c004eff07001e0fe8001e009000cf80de00da
:1036ac009cf407000001be00000020000100240073
:1036bc0024f507005bf40700000078009e0f500013
:1036cc00edff3c00014080001e0090000088de00f1
:1036dc000040880000408000cf80de008df40700a1
:1036ec002e019000be019000e2f407004007980004
:1036fc00510798000200200003f023004e009000b8
:10370c00de009000e7f3070002002000832c240069
:10371c00d8f4070060079800710798006e009000bd
:10372c00fe00900060f4070000007800101688007e
:10373c00401f200025ff0700700147006e0090001d
:10374c00fe009000809fbe00e0992900801f780049
:10375c000200780092f70700e6875700000220006d
:10376c001aff0700100020004dff0700409a2900a7
:10377c0083ff07002000200049ff0700700047006e
:08378c007fff0700b8ff3700c2
:020000040000fa
:103794006008000020000000000000000408000091
:1037a4000200000002000000ffff0000000800000b
:1037b40004000000000000000608000002000000f1
:1037c40000000000800800001a0000000200000051
:1037d400686a6c00747a4c0000000100000200006a
:1037e4000400080000100000000020002b2d23001e
:1037f400300000000808000058000000020000002b
:103804006e616e00004e41004e0069006e6600005d
:10381400494e460000000000000000000024400063
:1038240000000000000000005940000000000000fb
:103834000088c3004000000000008400d7974100c6
:103844000080e0003779c300414317006e05b500de
:10385400b5b8930046f5f9003fe903004f384d0031
:10386400321d3000f9487700825a3c00bf737f0054
:10387400dd4f1500750000009a08000002000000ea
:0c38840002000000300000000000000006
:020000040000fa
:103890000000fa00c422ef00ca22ef00d022ef009d
:1038a000d622ef00dc22ef00e222ef00e822ef0058
:1038b000f06f2c00001688000080eb0030168800a6
:1038c000e0012700601688000080eb009016880059
:1038d000f03f2000c0168800f01f2300f01688007b
:1038e000f03c2f00201788006820ef006a20ef00ce
:1038f000c026ef00c626ef00cc26ef00d226ef0050
:10390000d826ef00de26ef00e426ef00000c2000b2
:10391000601988000080fa00000006000000fa002c
:1039200000102300203a88004827ef007027ef009e
:103930007227ef007427ef0032002000800720007c
:10394000a109200033742000804978008149780063
:10395000824978000001eb0060042000710520001e
:1039600023742000804978008149780082497800da
:103970000080fa00000006000200fa00000f780044
:103980009e00780021408800ffff37000000fa0009
:1039900000862000800778008087200000018800d2
:1039a0000080fa00000006000000fa00b8ff0700df
:1039b00003000700d9ff07000080fa00000006009e
:0c39c0000000fa000080fa000000060081
:020000040000fa
:020000040002f8
:04aff8009dfb0000bd
:020000040000fa
:020000040002f8
:04affc007f3f000093
:00000001FF
