:020000040000fa
:080000000002040000000000f2
:020000040000fa
:040008004a030000a7
:020000040000fa
:04000c00c802000026
:020000040000fa
:040010000a030000df
:020000040000fa
:04001400e8020000fe
:020000040000fa
:040018002a030000b7
:020000040000fa
:04001c004a03000093
:020000040000fa
:040020004a0300008f
:020000040000fa
:040024004a0300008b
:020000040000fa
:040028004a03000087
:020000040000fa
:04002c004a03000083
:020000040000fa
:040030004a0300007f
:020000040000fa
:040034004a0300007b
:020000040000fa
:040038004a03000077
:020000040000fa
:04003c004a03000073
:020000040000fa
:040040004a0300006f
:020000040000fa
:040044004a0300006b
:020000040000fa
:040048004a03000067
:020000040000fa
:04004c004a03000063
:020000040000fa
:040050004a0300005f
:020000040000fa
:040054004a0300005b
:020000040000fa
:040058004a03000057
:020000040000fa
:04005c004a03000053
:020000040000fa
:040060004a0300004f
:020000040000fa
:040064004a0300004b
:020000040000fa
:040068004a03000047
:020000040000fa
:04006c004a03000043
:020000040000fa
:040070004a0300003f
:020000040000fa
:040074004a0300003b
:020000040000fa
:040078004a03000037
:020000040000fa
:04007c004a03000033
:020000040000fa
:040080004a0300002f
:020000040000fa
:040084004a0300002b
:020000040000fa
:040088004a03000027
:020000040000fa
:04008c004a03000023
:020000040000fa
:040090004a0300001f
:020000040000fa
:040094004a0300001b
:020000040000fa
:040098004a03000017
:020000040000fa
:04009c004a03000013
:020000040000fa
:0400a0004a0300000f
:020000040000fa
:0400a4004a0300000b
:020000040000fa
:0400a8004a03000007
:020000040000fa
:0400ac004a03000003
:020000040000fa
:0400b0004a030000ff
:020000040000fa
:0400b4004a030000fb
:020000040000fa
:0400b8004a030000f7
:020000040000fa
:0400bc004a030000f3
:020000040000fa
:0400c0004a030000ef
:020000040000fa
:0400c4004a030000eb
:020000040000fa
:0400c8004a030000e7
:020000040000fa
:0400cc004a030000e3
:020000040000fa
:0400d0004a030000df
:020000040000fa
:0400d4004a030000db
:020000040000fa
:0400d8004a030000d7
:020000040000fa
:0400dc004a030000d3
:020000040000fa
:0400e0004a030000cf
:020000040000fa
:0400e4004a030000cb
:020000040000fa
:0400e8004a030000c7
:020000040000fa
:0400ec004a030000c3
:020000040000fa
:0400f0004a030000bf
:020000040000fa
:0400f4004a030000bb
:020000040000fa
:0400f8004a030000b7
:020000040000fa
:0400fc004a030000b3
:020000040000fa
:040100004a030000ae
:020000040000fa
:040104004a030000aa
:020000040000fa
:040108004a030000a6
:020000040000fa
:04010c004a030000a2
:020000040000fa
:040110004a0300009e
:020000040000fa
:040114004a0300009a
:020000040000fa
:040118004a03000096
:020000040000fa
:04011c004a03000092
:020000040000fa
:040120004a0300008e
:020000040000fa
:040124004a0300008a
:020000040000fa
:040128004a03000086
:020000040000fa
:04012c004a03000082
:020000040000fa
:040130004a0300007e
:020000040000fa
:040134004a0300007a
:020000040000fa
:040208004a030000a5
:020000040000fa
:04020c00c802000024
:020000040000fa
:040210000a030000dd
:020000040000fa
:04021400e8020000fc
:020000040000fa
:040218002a030000b5
:020000040000fa
:04021c004a03000091
:020000040000fa
:040220004a0300008d
:020000040000fa
:040224004a03000089
:020000040000fa
:040228004a03000085
:020000040000fa
:04022c004a03000081
:020000040000fa
:040230004a0300007d
:020000040000fa
:040234004a03000079
:020000040000fa
:040238004a03000075
:020000040000fa
:04023c004a03000071
:020000040000fa
:040240004a0300006d
:020000040000fa
:040244004a03000069
:020000040000fa
:040248004a03000065
:020000040000fa
:04024c004a03000061
:020000040000fa
:040250004a0300005d
:020000040000fa
:040254004a03000059
:020000040000fa
:040258004a03000055
:020000040000fa
:04025c004a03000051
:020000040000fa
:040260004a0300004d
:020000040000fa
:040264004a03000049
:020000040000fa
:040268004a03000045
:020000040000fa
:04026c004a03000041
:020000040000fa
:040270004a0300003d
:020000040000fa
:040274004a03000039
:020000040000fa
:040278004a03000035
:020000040000fa
:04027c004a03000031
:020000040000fa
:040280004a0300002d
:020000040000fa
:040284004a03000029
:020000040000fa
:040288004a03000025
:020000040000fa
:04028c004a03000021
:020000040000fa
:040290004a0300001d
:020000040000fa
:040294004a03000019
:020000040000fa
:040298004a03000015
:020000040000fa
:04029c004a03000011
:020000040000fa
:0402a0004a0300000d
:020000040000fa
:0402a4004a03000009
:020000040000fa
:0402a8004a03000005
:020000040000fa
:0402ac004a03000001
:020000040000fa
:0402b0004a030000fd
:020000040000fa
:0402b4004a030000f9
:020000040000fa
:0402b8004a030000f5
:020000040000fa
:0402bc004a030000f1
:020000040000fa
:0402c0004a030000ed
:020000040000fa
:0402c4004a030000e9
:020000040000fa
:0402c8004a030000e5
:020000040000fa
:0402cc004a030000e1
:020000040000fa
:0402d0004a030000dd
:020000040000fa
:0402d4004a030000d9
:020000040000fa
:0402d8004a030000d5
:020000040000fa
:0402dc004a030000d1
:020000040000fa
:0402e0004a030000cd
:020000040000fa
:0402e4004a030000c9
:020000040000fa
:0402e8004a030000c5
:020000040000fa
:0402ec004a030000c1
:020000040000fa
:0402f0004a030000bd
:020000040000fa
:0402f4004a030000b9
:020000040000fa
:0402f8004a030000b5
:020000040000fa
:0402fc004a030000b1
:020000040000fa
:040300004a030000ac
:020000040000fa
:040304004a030000a8
:020000040000fa
:040308004a030000a4
:020000040000fa
:04030c004a030000a0
:020000040000fa
:040310004a0300009c
:020000040000fa
:040314004a03000098
:020000040000fa
:040318004a03000094
:020000040000fa
:04031c004a03000090
:020000040000fa
:040320004a0300008c
:020000040000fa
:040324004a03000088
:020000040000fa
:040328004a03000084
:020000040000fa
:04032c004a03000080
:020000040000fa
:040330004a0300007c
:020000040000fa
:040334004a03000078
:020000040000fa
:100400004f8220000e7f22000e01880000000000b5
:10041000000020000000e000020032000001200087
:1004200020028800140007009c0007000000e00084
:1004300003003a0040c22000010020000200370003
:100440000000200001002000810f70000100320038
:1004500014000700000020000000e000020032004d
:100460000000020000000000fe0a02000000000080
:100470000040da000000fe004440a9000000200017
:100480000000e0000300320000002000a00188000e
:100490004440a800000006008a1f78008b1f7800e7
:1004a0000000060091018800800478000000eb0045
:1004b0001a003700e284440032a0b4009905ba0063
:1004c000e284440032a0b4009906ba00e2844400f9
:1004d00032a0b4000006eb00476fde00fd07b2005b
:1004e000636ce10003003a00ebff07000000eb0043
:1004f0000a003700606ce10004003a00005deb0088
:100500008b05e900fdff3e00040037006168e10053
:10051000010032000086eb000b00070019c7ba008b
:100520001905ba000e04e00003003a000a00e000da
:10053000e0ff3a0000000600fe07b2009e018800be
:100540008a047800f5ff3700395dba008b05e900b1
:100550000c003200295dba008b05e900080032006a
:100560000c00e00003003a00e284440032a0b40032
:10057000f5ff370019ddba008b05e900faff3a00f4
:100580008904e800e184440032a0b40000000600c1
:100590003600f800809fbe00829fbe00849fbe0090
:1005a000869fbe000000fa008020a9000000eb003a
:1005b000990407000080fa004f03be004f02be00fe
:1005c0004f01be004f00be003600f900004006009b
:1005d0003600f800809fbe00829fbe00849fbe0050
:1005e000869fbe000000fa00900407008040a9002a
:1005f00010002000880407000080fa004f03be00ae
:100600004f02be004f01be004f00be003600f90091
:10061000004006003600f800809fbe00829fbe00aa
:10062000849fbe00869fbe000000fa008060a90083
:1006300020002000780407000080fa004f03be006d
:100640004f02be004f01be004f00be003600f90051
:10065000004006003600f800809fbe00829fbe006a
:10066000849fbe00869fbe000000fa008080a90023
:1006700030002000680407000080fa004f03be002d
:100680004f02be004f01be004f00be003600f90011
:10069000004006000040da000000fe0000000500f7
:1006a00003f0a200889fbe008a9fbe008c1f7800c6
:1006b000bc000700c30033006450e1004f0032006b
:1006c0006420e1005200320003826c0007003b000e
:1006d0000905d0000306d000820f54000c065d000f
:1006e0000200390002003200890178000306780018
:1006f0008582550004003d000003fd008103fd00dc
:100700008502ea008b854200840f720002003b00e4
:1007100060001000e08018006011b8000005eb00d8
:100720007a28e1000a00390006007800c75ddd0084
:10073000f707b200878075002d00370082817100b5
:100740000a017800610560008180d1000080d3003b
:100750008502e900f9ff3b00060440008784480059
:1007600002003b0060041400e0841c000988a30020
:10077000070032008a81710082817100610164008a
:100780008904d1000884d3008b05e80017003700e6
:100790000978a30013003a000b00e00013003400b6
:1007a0008b05e9000804440089844c000a44740065
:1007b0000978a3000d003a000b00e00007003400a8
:1007c0008b05e9000804440089844c0001003a00cc
:1007d0000b0020000978a300f7ff32000001eb00b6
:1007e00002003700828171000a01780032000700a0
:1007f0000cf0a70001f0a0007b0037006420e100ae
:1008000002003a00838f6c007b0033000801be00b9
:100810000200be0074003700140020006802370098
:100820000001be004a0007000470a70003f0a10009
:100830006509b100160032000d0035006828e1009e
:1008400006003500f0ff2f00f1ff27000300e00055
:1008500013003b00010028000000050000004000dc
:10086000818048008502e900fcff3a00080037005b
:10087000f88f420002003c008000eb000000050001
:100880008100d1000080d3008502e800fcff3a001f
:100890000300e00002003b0060001000e080180050
:1008a000000006004f89de008201780061023700f7
:1008b0006011b8006f023700810020006180550090
:1008c0000b003d000b00200061fe2f000100e10045
:1008d0001d00340082817100610164008904d1002f
:1008e0000884d3000000e800faff3a0071002000fd
:1008f0006100640003007000020060000900320023
:1009000061044400e0844c000988a5000500320021
:100910008b05e8006808e10002003a008904d10074
:100920000884d300f20f20000258e10005003d00ca
:10093000c75ddd00f907b200898075000800780006
:10094000000006000bf827008b007800000005006f
:10095000c70ade00f107b200f50fb200080032004e
:10096000e1cf4200020032000170a0002400050027
:10097000810f7000010032000408050044000500ea
:10098000810f700002003a00140005008502e900a2
:100990000000400081c04800fcff3b000170a00047
:1009a000240005000004be00e9ff07000003be00ac
:1009b0000405be000200be00e5ff0700844f75007d
:1009c000000006000200be006450e1000500360091
:1009d0006420e100020036000968a30001003a002b
:1009e0000800be000160a0004f0678004f05be0061
:1009f0004f04be0000000600f0ff2f00f1ff2700ab
:100a0000f9ff3700889fbe008a9fbe008c1f7800c8
:100a1000e4ff0700ebff330003866c006450e10045
:100a2000240032006420e100270032006150e10020
:100a3000220032006120e100210032008b8542005b
:100a4000eb07b1000134b800003ab80008044200d6
:100a500089844a00013ab8000030b800888040001c
:100a600009014a0004003300000040008180480072
:100a7000020149008b05e900c909dd00830170000e
:100a80000100320013002000c814de004814dd000d
:100a90004709de001200b200c808de0008847000ba
:100aa00085ff070001f0a1000cf0a70001f0a000f5
:100ab000cdff37006120e100cfff32000801be000a
:100ac0000200be00f7ff37006150e100fcff3a0072
:100ad000c9ff37000c00fa00889fbe008a9fbe0045
:100ae0008c9fbe00afff07000206be0084057800a1
:100af0000200be00020020008a01070005003a0043
:100b00008b02b300120020008601070001003a00aa
:100b1000f8856d000c01be00c60007000800be008d
:100b20009b0032000b08a3009e003a000df0a700c6
:100b30000be0a00009f0a7000bf0a00009f0a10055
:100b40000801be00bb0007000bf0a60095003200b4
:100b500001003c000bd0a0008acf7500b20033002a
:100b60006000b8006250e10099003900a1003e0029
:100b70000b28a300a2003a000bf8a30006003200e5
:100b80000b58a300a70032000801be00a90007000f
:100b90000800be00940032000800be00b00007004c
:100ba0000004be00050578000bf0a7000b30a6007e
:100bb0000bf0a1005b079800324f200053f3230095
:100bc00015ff070005003d000800be0012002000d0
:100bd000d70107000004be000a05e9004a07980093
:100be0006150b9002fff0700008fbe000c01be004e
:100bf00084ff07000aff0700300798000100e000ab
:100c000002003d0060001000e0801800f2ff2700a5
:100c1000820f5000e08f580064003e000c00be00c0
:100c2000fffe070020079800f2072000820f500007
:100c3000e08f580005003c0012f82f00f3ff2f0052
:100c4000820f5000838f580009003d000a00e00029
:100c50000300320001003c000201ea0002057800b6
:100c60006000b800200798003a0798001900370084
:100c70003e0090006100b9000aff0700809fbe009f
:100c80000c00be004109dd004811de007208b10011
:100c9000240107000005be001e01be0059ff070029
:100ca0004f01be007efe0700809fbe000c00be000c
:100cb0000a01be007afe07001e01be0051ff0700b8
:100cc0004f01be0077fe07008221270013f32300a7
:100cd0004cff07000005be002e0090006100b90027
:100ce000f0fe070001f0a2000c01be006dfe07003f
:100cf0000006be000800be00af0107000c01be00e8
:100d000040ff07000a01be0066fe0700809fbe008c
:100d10004a0007002e0590000af0a7000a05ea0025
:100d2000050037000800be000801be0035ff0700bf
:100d30000004be000c00be000801be000a00a700af
:100d400030ff07000006be000a05d100f5ff3a009b
:100d50005e01900002e0a600030037000001be0023
:100d6000360007004b0007000004be004f00be0025
:100d70008a0007000801be0022ff07003e01900024
:100d80006b010700de0590000bf0a70001f0a20048
:100d90004f06be004f05be004f04be000080fa00a3
:100da0000000060025000700f9ff370027000700b4
:100db0006000b8000bd0a7000bc0a0000be0a7009c
:100dc0000bc0a2000bc0a70001f82700f0ff3700fe
:100dd0000df8a300020032001e00070019000700f2
:100de0000bf8a300eaff32000b30a70001f0a200cd
:100df000e7ff37000df8a300f9ff3a00f7ff3700cf
:100e00000801be000b000700e6ff320001003c00b5
:100e10000df0a2006000b8000df0a7000900070067
:100e2000dbff37000b000700f1ff2700f0ff2f006a
:100e3000d7ff37000100070077fe370001f82300d5
:100e40000000050001f82700000005002002200036
:100e5000010037001002200010408800000006004a
:100e60000003be00bafe07006220e100020032006b
:100e70000600be0005000500e507b100f107b2005d
:100e800004f023008480700007f0a70001f0a000a8
:100e900024000500889fbe008a9fbe008c1f78003a
:100ea000c0fe0700c7fe330003866c006450e100fb
:100eb0002e0032006420e100330032006150e10076
:100ec0002f0032006120e10031003200858555009d
:100ed000eb07b000090020000804200005003700df
:100ee0000804440089844c000a00310006034300d2
:100ef00087834b000001530081815b00f8ff3300c2
:100f00000203be000800a0000804440089844c00cd
:100f1000f6ff3900c639dd0083017300010032009d
:100f2000130020008904d1000884d3000998a3008d
:100f3000050032000800a7000300a0008904d100ca
:100f40000884d3008b05e8008904d1000884d3000d
:100f50000001eb000281d20057fe070001f0a10062
:100f60000cf0a70001f0a0009ffe37006420e10014
:100f7000a1fe32000801be000200be00f7ff3700ec
:100f80006120e1009cfe32006000b800f3ff3700f2
:100f90000000200001f82700f0ff3700889fbe0006
:100fa0008a9fbe008c9fbe000004be0068fe070042
:100fb0000800be006420e10048003e0055003200f9
:100fc00072212700132b24009800070047003c00e3
:100fd0000800be00c2ec2800e32c2c000efe070027
:100fe000470035000800be0001f0a100020020000b
:100ff0000338230008fe0700430035000800be0048
:10100000b2a32a0083fb23007efe0700020020001b
:1010100003f0230001f0a70003f0a000a1fd0700ea
:10102000fffd07000005be001efe070001f0a20044
:101030000006be000200280013f3230071fe070023
:101040000801be0097fd0700809fbe000c00be0097
:1010500032082800e3952b006afe07004f01be000e
:1010600090fd07000006be000001be0065fe0700ff
:10107000809fbe004241250083b8230061fe070027
:101080000200200003e8230086fd07000c01be00db
:101090005cfe07000006be004f00be00f2f92b0008
:1010a000c3d4230057fe07000200200003f02300f2
:1010b0007cfd07000c01be0079fd07000001be00a9
:1010c0000c00be0073ff07000200200003f02300a5
:1010d00074fd070061014500950007004f06be0042
:1010e0004f05be004f04be000000060001f82700b7
:1010f000000020002202200012408800f7ff370085
:101100006000b800fbff370001f82300000020005a
:10111000f2ff370009f8a300f0ff32006000b800ca
:10112000eeff3700889fbe008a9fbe000003be000e
:1011300007fe07008505780082815200020020002a
:101140006220e10004003a00f307b100040035001a
:101150007718e100040035000600be0014003700d7
:101160006000b8000f003700f50f2000faff2f00d5
:101170008502d1000a85d3008301e900fcff3b0012
:101180008184620000046500890f7400f2ff320060
:101190008582ea000a85ea00818462000004650015
:1011a000c5fd070007f0a70001f0a0000081eb00db
:1011b0000200e0004f05be004f04be000000060024
:1011c000889fbe008a9fbe00841f7800f5fd07003f
:1011d0004f00780011003300f0ff2f00838f6c0068
:1011e00006003b00040565000a00a7000800370060
:1011f00009f0a6001000200008003700820f5400fc
:10120000838f5c00030039001000200001003e00c5
:101210000000200009f0a7000000ea004f05be0012
:101220004f04be000000e00000000600f4ff2f00a5
:10123000e3ff3700881f7800030478000300e00014
:1012400007003d0060001000e080180060011900f8
:10125000e081190002003b0001f02d00030037007f
:101260000400070008f0a70001f0a0004f04780078
:1012700000000600889fbe008a9fbe0000827000aa
:101280000402710004827100260032000004be00d6
:101290000200be006011b8006b092000950220001a
:1012a0000182cf000a0039000541b1000082cf0061
:1012b000070039000541b1000982cf000400390060
:1012c0000541b1000882cf00010039000541b1009d
:1012d00005425200120032000a003b008281710078
:1012e000610164008100d1000080d3008984d300b3
:1012f0000884d3008b05e8000442e800f7ff3a00b9
:10130000070037000804440089844c0000004800ae
:10131000818048008b05e9000442e900f9ff3a00aa
:1013200065fd07004f05be004f04be00000006002b
:101330000003be0086fd07006220e10002003200cb
:101340000600be000000060085024100e30f2000f9
:101350000328e10005003c00a3fe2f000328e10064
:1013600007003d000500200001003700f50f2000b8
:1013700020022000104088006000b80008003700fc
:10138000130020008381520005003d008100d10040
:101390000080d3008301e800fcff3a000500200034
:1013a000c72add00f107b2008580700007f0a700b2
:1013b00001f0a00000000600889fbe008a9fbe00ca
:1013c0008c9fbe00a6fe0700850478000005be00c5
:1013d0006420e10049003e006220e1000300320089
:1013e000090035000bf8a300440032000bf8a300fd
:1013f000080032001002200010408800f0ff2f008b
:10140000f1ff27003d00370001f82f000000200009
:101410003a0037003d000700a1fc07000006be00af
:101420000a00be00324f200053f323007fff070065
:10143000060034000c00be003400070098fc0700d2
:101440000006be000a00be00020037008904e90061
:101450000c00be002d0007006afd07002b000700ee
:1014600090fc07000001be000c00be0089fe0700d2
:101470000005be000001be0062fd07000006be00c0
:10148000a2f32300430d2c0086fc0700809fbe00c2
:101490000c00be00d2e32700d3f02b0059fd07005b
:1014a0004f01be007bfe07000006be000a01be0021
:1014b00054fd07000a01be007afc07000006be00ca
:1014c0006148b900f7fc07000005be00320828009b
:1014d000e3952b004bfd07000c01be0071fc0700db
:1014e0000006be000a00be000200280013f323001d
:1014f00044fd07000c01be006afc07004f06be0059
:101500004f05be004f04be000000060003f023009c
:0415100002000500d0
:020000040000fa
:101514000200fa00000f78001e00780060198800ad
:10152400000e2000001988002223ef0010f0210093
:10153400201988003023ef0021e3a8000080fa007e
:10154400000006000200fa00000f78001e00780078
:10155400401988002023a800000000000019800022
:10156400610060000000e000fcff32002003a900dd
:10157400001880000080fa00000006000200fa0053
:10158400889fbe008a1f7800000f7800000328009f
:10159400800888000621ef00000000003008800069
:1015a4008000eb00c1fc07000004be001e007800b0
:1015b400cf80de00bafc070002002000a32724002d
:1015c4000ffd07001ac0b3000001be000800be00f2
:1015d40090fc07000000e000010035000045eb002e
:1015e4000a04e000edff3a004f0578004f04be0006
:1015f4000080fa00000006001600fa009c000700b4
:1016040030002000200798003033230031b5230038
:101614003007980041079800f0fe2f00bcff070038
:1016240000f02f00001688000000eb00000f780087
:101634000000eb001007980008003700400020006d
:10164400c0ff07001e0f4000d0072000cbff07009b
:101654001e0090000000e800100798002e00900083
:10166400cf80de008efc07000001be0000002000d9
:101674000100240016fd070068fc070080007800c4
:101684001e009000808f5000ecff3c009e0078000c
:101694002e0090000088de00000f78001e00780005
:1016a400cf80de007efc07003e019000ce0190005a
:1016b400d3fc07005007980061079800020020003f
:1016c40003f023005e009000ee009000f3fb07009f
:1016d40002002000832c2400c9fc07007007980036
:1016e400010f98006266260063fe23007e009000ce
:1016f4008e089000c2fc0700020020000320240092
:10170400e7fb0700100f9800210f98001e089000b7
:10171400ae08900041fc0700000078001016880015
:10172400401f200095ff0700bfff37000000fa00ac
:10173400c422ef00ca22ef00d022ef00d622ef002d
:10174400dc22ef00e222ef00e822ef00f06f2c0031
:10175400001688000080eb0030168800e0012700a6
:10176400601688000080eb0090168800f03f20008f
:10177400c0168800f01f2300f0168800f03c2f00ec
:10178400201788006820ef006a20ef00c026ef00d1
:10179400c626ef00cc26ef00d226ef00d826ef00b5
:1017a400de26ef00e426ef00000c2000601988001c
:1017b4000080fa00000006000000fa000010230078
:1017c400203a88004827ef007027ef007227ef00c7
:1017d4007427ef003200200080072000a1092000b8
:1017e4003374200080497800814978008249780068
:1017f4000001eb0060042000710520002374200028
:101804008049780081497800824978000080fa0094
:10181400000006000200fa00000f78009e00780025
:1018240001408800ffff37000000fa0040802000dc
:1018340080077800c0812000000188000080fa0041
:04184400000006009a
:020000040000fa
:10184800040800002000000000000000000800005c
:101858000200000002000000ffff00000208000074
:0c18680002000000000000000000000072
:020000040000fa
:101874000000fa00adff0700cfff070002000700d9
:101884000080fa00000006000000fa000080fa0060
:04189400000006004a
:020000040000fa
:020000040002f8
:04aff8009dfb0000bd
:020000040000fa
:020000040002f8
:04affc007f3f000093
:00000001FF
